:100000000C9434000C9451000C9451000C94510049
:100010000C9451000C9451000C9451000C9451001C
:100020000C9451000C9451000C9451000C9451000C
:100030000C9451000C9451000C9451000C945100FC
:100040000C9451000C9451000C9451000C945100EC
:100050000C9451000C9451000C9451000C945100DC
:100060000C9451000C94510011241FBECFEFD8E026
:10007000DEBFCDBF11E0A0E0B1E0E8EBFCE002C0E4
:1000800005900D92A83AB107D9F711E0A8EAB1E0BE
:1000900001C01D92AE3AB107E1F70E94C7010C946E
:1000A0005A060C940000229A20E030E040EA5FE01B
:1000B0000EC02A9AFA013197F1F7299AFA0131977D
:1000C000F1F72F5F3F4F2830310549F08695299889
:1000D000FA013197F1F780FDECCF2A98EBCF089524
:1000E000209A219A08952298299840E020E030E053
:1000F000E1E0F0E060EA7FE01A9B08C0CF01022E49
:1001000002C0880F991F0A94E2F7482B299ACB0165
:100110000197F1F729982F5F3F4F2830310561F79C
:10012000842F0895299895B195B9289A880F8168E8
:100130000E9453000E947300289808950F931F9304
:10014000062F0E94920010E00F5F1F4F21E030E069
:1001500002C0220F331F0A95E2F721502823822F75
:1001600082958F7090E0AC01440F551F440F551FCE
:10017000440F551F880F991F840F2F70820F1F91F6
:100180000F91089567E00E949E0008951F93162F17
:10019000289895B195B9880F80680E945300812FE7
:1001A0000E94530085B185B91F910895EF92FF9287
:1001B0000F931F93E82EF62E042F0E949200E82F33
:1001C00010E00F5F1F4F21E030E002C0220F331F0D
:1001D0000A95E2F721508F2D6AE00E948503482F8F
:1001E00050E042955295507F5427407F54278F2DE1
:1001F0000E948503942B922320952E23292B8E2D4C
:10020000622F0E94C6001F910F91FF90EF900895FA
:1002100047E00E94D600089580E066E00E949E00BC
:10022000089581E00E94C200089582E00E94920039
:10023000482F87FD18C090E0807390709595879542
:100240009595879595958795959587959C01220F0E
:10025000331F220F331F220F331F880F991F820F66
:100260004F70840F0895282F30E02072307035953C
:100270002795359527953595279535952795359566
:100280002795C901880F991F820F931F880F880F28
:100290004F70840F089583E065E00E949E000895EA
:1002A00084E064E00E949E00089585E062E00E9480
:1002B0009E00089586E00E94C200282F30E020535F
:1002C000384FC9010895682F80E046E00E94D600AB
:1002D0000895682F81E046E00E94D60008951F939C
:1002E000182F82E060E00E94C60082E0612F45E0A6
:1002F0000E94D6001F910895682F83E045E00E9478
:10030000D6000895682F84E044E00E94D600089546
:10031000682F85E042E00E94D6000895BC01605D30
:10032000774086E00E940801089588E38AB908951D
:100330005C9A482F50E020E030E007C05B985D9A5F
:100340002F5F3F4F2830310589F05D98CA01022E9A
:1003500002C0880F991F0A94E2F787FFEFCF5B9ADC
:100360005D9A2F5F3F4F2830310579F708950F933D
:100370001F93082F162F842F0E949801812F0E940F
:100380009801802F0E9498011F910F9108952F923C
:100390003F924F925F926F927F928F929F92AF9215
:1003A000BF92CF92DF92EF92FF920F931F93CF9362
:1003B000DF930E9495010E945D038CE891E0909389
:1003C000AB018093AA018AE991E09093A9018093FF
:1003D000A801209A219A60E0662E61E0762E59E00D
:1003E000452E51E0552E40E1242E41E0342E30E5DB
:1003F000E32E31E0F32E29E5C22E21E0D22E92E643
:10040000A92E91E0B92E8BE6882E81E0982EC0E9C6
:10041000D1E00E945A0100D000D0ADB7BEB712960D
:100420007C926E92119714969C938E9313970E94D0
:1004300091030F900F900F900F900E94500100D0E9
:1004400000D0EDB7FEB73196ADB7BEB712965C924D
:100450004E921197828313820E9491030F900F9006
:100460000F900F900E94550100D000D0EDB7FEB75D
:100470003196ADB7BEB712963C922E9211978283F9
:1004800013820E9491030F900F900F900F900E9483
:10049000150100D000D0EDB7FEB7319627E131E06D
:1004A000ADB7BEB712963C932E93119782831382F9
:1004B0000E9491030F900F900F900F900E941101D6
:1004C00000D000D0EDB7FEB731962EE131E0ADB7E8
:1004D000BEB712963C932E931197828313820E948B
:1004E00091030F900F900F900F900E940C0100D07D
:1004F00000D0EDB7FEB7319625E231E0ADB7BEB71B
:1005000012963C932E931197828313820E9491033B
:100510000F900F900F900F9080E00E94920000D0FB
:1005200000D0EDB7FEB731962CE231E0ADB7BEB7E3
:1005300012963C932E931197828313820E9491030B
:100540000F900F900F900F9081E00E94920000D0CA
:1005500000D0EDB7FEB7319625E331E0ADB7BEB7B9
:1005600012963C932E931197828313820E949103DB
:100570000F900F900F900F9082E00E94920000D099
:1005800000D0EDB7FEB731962EE331E0ADB7BEB780
:1005900012963C932E931197828313820E949103AB
:1005A0000F900F900F900F9083E00E94920000D068
:1005B00000D0EDB7FEB7319627E431E0ADB7BEB756
:1005C00012963C932E931197828313820E9491037B
:1005D0000F900F900F900F9084E00E94920000D037
:1005E00000D0EDB7FEB73196ADB7BEB71296FC920C
:1005F000EE921197828313820E9491030F900F90C5
:100600000F900F9085E00E94920000D000D0EDB7CF
:10061000FEB73196ADB7BEB71296DC92CE92119767
:10062000828313820E9491030F900F900F900F907E
:1006300086E00E94920000D000D0EDB7FEB7319660
:10064000ADB7BEB71296BC92AE9211978283138259
:100650000E9491030F900F900F900F9087E00E94DF
:10066000920000D000D0EDB7FEB73196ADB7BEB75F
:1006700012969C928E921197828313820E9491030C
:100680000F900F900F900F9080E00E949200082F23
:1006900080E00E949200182F80E00E949200482F74
:1006A000802F612F0E94B70120E137E2CE01019730
:1006B000F1F721503040D1F7ACCE1092C50087E65B
:1006C0008093C400E0ECF0E080818D7F808386E041
:1006D0008093C20088E18093C10008951F93182F72
:1006E0008A3041F08091C00085FFFCCF1093C60096
:1006F0001F9108958DE00E946E03F4CF8091C00099
:1007000087FFFCCF8091C6000895991B79E004C053
:10071000991F961708F0961B881F7A95C9F7809540
:100720000895A0E0B0E0E7E9F3E00C943306FE01A1
:100730003596619171918091AA019091AB01AF01C1
:100740000E94A6032096E2E00C944F06ABE0B0E0D6
:10075000ECEAF3E00C9423063C012B015A01FC0166
:1007600017821682838181FD03C06FEF7FEFC6C1C0
:100770009AE0892E1E010894211C311CF30123816B
:10078000F20123FD859123FF81912F01882309F434
:10079000B2C1853239F423FD859123FF81912F0168
:1007A000853229F490E0B3010E949905E7CF982F94
:1007B000FF24EE249924FFE1FF15D0F09B3269F06D
:1007C0009C3228F4903259F0933291F40EC09D324D
:1007D00049F0903369F441E024C052E0F52A84E006
:1007E000F82A28C098E0F92A25C0E0E1FE2A22C0B4
:1007F000F7FC29C0892F80538A3070F4F6FE05C0BB
:10080000989C902C1124980E15C0E89CE02C112483
:10081000E80EF0E2FF2A0EC09E3229F4F6FC6BC10E
:1008200040E4F42A07C09C3619F450E8F52A02C0C7
:10083000983649F4F20123FD959123FF91912F0100
:10084000992309F0B8CF892F8554833018F080524E
:10085000833038F444E050E0A40EB51E5FE35983C2
:100860000FC0933631F0933779F0933509F056C0C5
:1008700020C0F5018081898342E050E0A40EB51EBE
:10088000610101E010E012C0F501C080D180F6FCEA
:1008900003C06FEF7FEF02C0692D70E042E050E0CF
:1008A000A40EB51EC6010E948E058C015FE7F522DD
:1008B00014C0F501C080D180F6FC03C06FEF7FEF5C
:1008C00002C0692D70E042E050E0A40EB51EC601E2
:1008D0000E9483058C0150E8F52AF3FE07C01AC078
:1008E00080E290E0B3010E949905EA948E2D90E099
:1008F00008171907A8F30EC0F601F7FC8591F7FE5B
:1009000081916F0190E0B3010E949905E110EA9492
:10091000015010400115110579F7EAC0943611F025
:10092000993669F5F7FE08C0F501208131814281D1
:10093000538184E090E00AC0F501808191819C019F
:10094000442737FD4095542F82E090E0A80EB91E51
:100950009FE6F92257FF09C05095409530952195A3
:100960003F4F4F4F5F4FE0E8FE2ACA01B901A10196
:100970002AE030E00E94C505D82ED21840C0953735
:1009800029F41F2D1F7E2AE030E01DC01F2D197F86
:100990009F3661F0903720F4983509F0ACC00FC055
:1009A000903739F0983709F0A6C004C028E030E04D
:1009B0000AC0106114FD146020E130E004C014FD91
:1009C000166020E132E017FF08C0F50160817181F7
:1009D0008281938144E050E008C0F50180819181DB
:1009E000BC0180E090E042E050E0A40EB51EA10101
:1009F0000E94C505D82ED2188FE7F82EF122F6FEF8
:100A00000BC05EEFF522D91438F4F4FE07C0F2FCF7
:100A100005C08FEEF82202C01D2D01C0192DF4FE75
:100A20000DC0FE01ED0DF11D8081803319F499EEAA
:100A3000F92208C01F5FF2FE05C003C08F2D867823
:100A400009F01F5F0F2DF3FC14C0F0FE0FC01E1540
:100A500010F09D2C0BC09D2C9E0C911A1E2D06C0D3
:100A600080E290E0B3010E9499051F5F1E15C0F35C
:100A700004C01E1510F4E11A01C0EE2404FF0FC0DB
:100A800080E390E0B3010E94990502FF1DC001FDC3
:100A900003C088E790E00EC088E590E00BC0802F8F
:100AA000867891F001FF02C08BE201C080E2F7FC82
:100AB0008DE290E0B3010E94990506C080E390E0CA
:100AC000B3010E9499059A94D914C0F3DA94F10104
:100AD000ED0DF11D808190E0B3010E949905DD20AC
:100AE000A9F706C080E290E0B3010E949905EA945C
:100AF000EE20C1F743CEF30166817781CB012B96BF
:100B0000E2E10C943F06FC01059061507040011039
:100B1000D8F7809590958E0F9F1F0895FC01615026
:100B2000704001900110D8F7809590958E0F9F1F0F
:100B300008950F931F93CF93DF938C01EB018B816B
:100B400081FF1BC082FF0DC02E813F818C819D8162
:100B50002817390764F4E881F9810193F983E88360
:100B600006C0E885F985802F0995892B31F48E819F
:100B70009F8101969F838E8302C00FEF1FEFC801F4
:100B8000DF91CF911F910F910895FA01AA27283084
:100B900051F1203181F1E8946F936E7F6E5F7F4F4A
:100BA0008F4F9F4FAF4FB1E03ED0B4E03CD0670FC6
:100BB000781F891F9A1FA11D680F791F8A1F911D19
:100BC000A11D6A0F711D811D911DA11D20D009F469
:100BD00068943F912AE0269F11243019305D3193AB
:100BE000DEF6CF010895462F4770405D4193B3E094
:100BF0000FD0C9F7F6CF462F4F70405D4A3318F03B
:100C0000495D31FD4052419302D0A9F7EACFB4E0EB
:100C1000A6959795879577956795BA95C9F70097A3
:100C20006105710508959B01AC010A2E0694579544
:100C3000479537952795BA95C9F7620F731F841F9B
:100C4000951FA01D08952F923F924F925F926F9231
:100C50007F928F929F92AF92BF92CF92DF92EF924C
:100C6000FF920F931F93CF93DF93CDB7DEB7CA1BCD
:100C7000DB0B0FB6F894DEBF0FBECDBF09942A88F8
:100C8000398848885F846E847D848C849B84AA84A0
:100C9000B984C884DF80EE80FD800C811B81AA812D
:100CA000B981CE0FD11D0FB6F894DEBF0FBECDBFF8
:080CB000ED010895F894FFCF57
:100CB800797979792025750A004D4D2025750A0026
:100CC80064642025750A0048482025750A006D6D62
:100CD8002025750A0073732025750A007265673030
:100CE8002025780A00726567312025780A00726528
:100CF80067322025780A00726567332025780A0054
:100D0800726567342025780A007265673520257872
:100D18000A00726567362025780A007265673720F1
:100D280025780A0001020408102040800102040806
:100D380010204080010204081020408000000002BA
:100D4800000000006E030000000000000001000029
:080D5800000000007E03000012
:00000001FF
