:100000000C9434000C9451000C9451000C94510049
:100010000C9451000C9451000C9451000C9451001C
:100020000C9451000C9451000C9451000C9451000C
:100030000C9451000C9451000C9451000C945100FC
:100040000C9451000C9451000C9451000C945100EC
:100050000C9451000C9451000C9451000C945100DC
:100060000C9451000C94510011241FBECFEFD8E026
:10007000DEBFCDBF11E0A0E0B1E0E0E6FBE002C0F2
:1000800005900D92A836B107D9F711E0A8E6B1E0C6
:1000900001C01D92AE36B107E1F70E94D3010C9466
:1000A000AE050C940000229A20E030E040EA5FE0C8
:1000B0000EC02A9AFA013197F1F7299AFA0131977D
:1000C000F1F72F5F3F4F2830310549F08695299889
:1000D000FA013197F1F780FDECCF2A98EBCF089524
:1000E000219A209A08952298299840E020E030E053
:1000F000E1E0F0E060EA7FE01A9B08C0CF01022E49
:1001000002C0880F991F0A94E2F7482B299ACB0165
:100110000197F1F729982F5F3F4F2830310561F79C
:10012000842F08952998289A880F81680E94530087
:100130000E947300289808950F931F93062F0E9422
:10014000920010E00F5F1F4F21E030E002C0220F4D
:10015000331F0A95E2F721502823822F82958F7052
:1001600090E0AC01440F551F440F551F440F551F1D
:10017000880F991F840F2F70820F1F910F91089580
:1001800067E00E949C0008951F93162F2998289AD3
:10019000880F80680E945300812F0E945300289886
:1001A0001F910895EF92FF920F931F93E82EF62E62
:1001B000042F0E949200E82F10E00F5F1F4F21E0F4
:1001C00030E002C0220F331F0A95E2F721508F2D35
:1001D0006AE00E94D902482F50E042955295507F24
:1001E0005427407F54278F2D0E94D902942B9223AD
:1001F00020952E23292B8E2D622F0E94C4001F9143
:100200000F91FF90EF90089547E00E94D20008956B
:1002100080E066E00E949C00089581E00E94C0009A
:10022000089582E00E949200482F87FD18C090E058
:1002300080739070959587959595879595958795F9
:10024000959587959C01220F331F220F331F220F94
:10025000331F880F991F820F4F70840F0895282F26
:1002600030E0207230703595279535952795359576
:1002700027953595279535952795C901880F991F9D
:10028000820F931F880F880F4F70840F089583E0AB
:1002900065E00E949C00089584E064E00E949C0058
:1002A000089585E062E00E949C00089586E00E9427
:1002B000C000282F30E02053384FC9010895682F1F
:1002C00080E046E00E94D2000895682F81E046E079
:1002D0000E94D20008951F93182F82E060E00E94D0
:1002E000C40082E0612F45E00E94D2001F91089572
:1002F000682F83E045E00E94D2000895682F84E0D3
:1003000044E00E94D2000895682F85E042E00E94F8
:10031000D2000895BC01605D774086E00E94040130
:10032000089588E38AB90895482F50E020E030E02E
:1003300007C05B985D9A2F5F3F4F2830310589F0E9
:100340005D98CA01022E02C0880F991F0A94E2F735
:1003500087FFEFCF5B9A5D9A2F5F3F4F28303105C3
:1003600079F708950F931F93082F162F842F5C9809
:100370000E949401812F0E949401802F0E94940179
:100380005C9A1F910F9108950E94B1028CE491E054
:1003900090936B0180936A018AE591E090936901E3
:1003A0008093680108952F923F924F925F926F92CF
:1003B0007F928F929F92AF92BF92CF92DF92EF92F5
:1003C000FF920F931F93CF93DF930E9491010E949E
:1003D000C4010E94700060E0C62E61E0D62E59E094
:1003E000A52E51E0B52E40E1842E41E0942E37E158
:1003F000632E31E0732E2FE1422E21E0522E96E241
:10040000292E91E0392E8DE2E82E81E0F82EC0E908
:10041000D1E00E94560100D000D0ADB7BEB7129611
:10042000DC92CE92119714969C938E9313970E9410
:10043000E5020F900F900F900F900E944C0100D09A
:1004400000D0EDB7FEB73196ADB7BEB71296BC92ED
:10045000AE921197828313820E94E5020F900F9053
:100460000F900F900E94470100D000D0EDB7FEB76B
:100470003196ADB7BEB712969C928E921197828339
:1004800013820E94E5020F900F900F900F900E9430
:10049000510100D000D0EDB7FEB73196ADB7BEB771
:1004A00012967C926E921197828313820E94E502CB
:1004B0000F900F900F900F900E94110100D000D06C
:1004C000EDB7FEB73196ADB7BEB712965C924E92BD
:1004D0001197828313820E94E5020F900F900F9074
:1004E0000F900E940D0100D000D0EDB7FEB73196FD
:1004F000ADB7BEB712963C922E92119782831382AB
:100500000E94E5020F900F900F900F900E9408013B
:1005100000D000D0EDB7FEB73196ADB7BEB712969A
:10052000FC92EE921197828313820E94E5020F9053
:100530000F900F900F900E940801082F0E94080151
:10054000182F0E940801482F802F612F0E94B201AE
:1005500028E833E1CE010197F1F721503040D1F77F
:1005600058CF1092C50087E68093C400E0ECF0E01D
:1005700080818D7F808386E08093C20088E18093B4
:10058000C10008951F93182F8A3041F08091C00058
:1005900085FFFCCF1093C6001F9108958DE00E9447
:1005A000C202F4CF8091C00087FFFCCF8091C600CB
:1005B0000895991B79E004C0991F961708F0961BBF
:1005C000881F7A95C9F780950895A0E0B0E0EBEE1A
:1005D000F2E00C948705FE0135966191719180914E
:1005E0006A0190916B01AF010E94FA022096E2E04D
:1005F0000C94A305ABE0B0E0E0E0F3E00C947705E9
:100600003C012B015A01FC0117821682838181FD76
:1006100003C06FEF7FEFC6C19AE0892E1E010894D8
:10062000211C311CF3012381F20123FD859123FF5D
:1006300081912F01882309F4B2C1853239F423FD59
:10064000859123FF81912F01853229F490E0B30138
:100650000E94ED04E7CF982FFF24EE249924FFE1B8
:10066000FF15D0F09B3269F09C3228F4903259F09B
:10067000933291F40EC09D3249F0903369F441E019
:1006800024C052E0F52A84E0F82A28C098E0F92A2C
:1006900025C0E0E1FE2A22C0F7FC29C0892F805343
:1006A0008A3070F4F6FE05C0989C902C1124980EA8
:1006B00015C0E89CE02C1124E80EF0E2FF2A0EC0E1
:1006C0009E3229F4F6FC6BC140E4F42A07C09C3644
:1006D00019F450E8F52A02C0983649F4F20123FDD6
:1006E000959123FF91912F01992309F0B8CF892F7C
:1006F0008554833018F08052833038F444E050E061
:10070000A40EB51E5FE359830FC0933631F09337C3
:1007100079F0933509F056C020C0F50180818983B6
:1007200042E050E0A40EB51E610101E010E012C0ED
:10073000F501C080D180F6FC03C06FEF7FEF02C0EF
:10074000692D70E042E050E0A40EB51EC6010E9483
:10075000E2048C015FE7F52214C0F501C080D1806E
:10076000F6FC03C06FEF7FEF02C0692D70E042E03E
:1007700050E0A40EB51EC6010E94D7048C0150E8BB
:10078000F52AF3FE07C01AC080E290E0B3010E9490
:10079000ED04EA948E2D90E008171907A8F30EC017
:1007A000F601F7FC8591F7FE81916F0190E0B301AE
:1007B0000E94ED04E110EA9401501040011511056A
:1007C00079F7EAC0943611F0993669F5F7FE08C05A
:1007D000F501208131814281538184E090E00AC09B
:1007E000F501808191819C01442737FD4095542F6C
:1007F00082E090E0A80EB91E9FE6F92257FF09C0DB
:1008000050954095309521953F4F4F4F5F4FE0E811
:10081000FE2ACA01B901A1012AE030E00E941905AF
:10082000D82ED21840C0953729F41F2D1F7E2AE0FC
:1008300030E01DC01F2D197F9F3661F0903720F4E6
:10084000983509F0ACC00FC0903739F0983709F0EF
:10085000A6C004C028E030E00AC0106114FD146096
:1008600020E130E004C014FD166020E132E017FF03
:1008700008C0F501608171818281938144E050E07C
:1008800008C0F50180819181BC0180E090E042E0E8
:1008900050E0A40EB51EA1010E941905D82ED21851
:1008A0008FE7F82EF122F6FE0BC05EEFF522D91489
:1008B00038F4F4FE07C0F2FC05C08FEEF82202C047
:1008C0001D2D01C0192DF4FE0DC0FE01ED0DF11D11
:1008D0008081803319F499EEF92208C01F5FF2FE7F
:1008E00005C003C08F2D867809F01F5F0F2DF3FC24
:1008F00014C0F0FE0FC01E1510F09D2C0BC09D2CD7
:100900009E0C911A1E2D06C080E290E0B3010E9459
:10091000ED041F5F1E15C0F304C01E1510F4E11A8C
:1009200001C0EE2404FF0FC080E390E0B3010E94F9
:10093000ED0402FF1DC001FD03C088E790E00EC07A
:1009400088E590E00BC0802F867891F001FF02C00F
:100950008BE201C080E2F7FC8DE290E0B3010E94DF
:10096000ED0406C080E390E0B3010E94ED049A9488
:10097000D914C0F3DA94F101ED0DF11D808190E0FE
:10098000B3010E94ED04DD20A9F706C080E290E0EB
:10099000B3010E94ED04EA94EE20C1F743CEF301C7
:1009A00066817781CB012B96E2E10C949305FC01E3
:1009B0000590615070400110D8F7809590958E0F8A
:1009C0009F1F0895FC016150704001900110D8F7FD
:1009D000809590958E0F9F1F08950F931F93CF932F
:1009E000DF938C01EB018B8181FF1BC082FF0DC067
:1009F0002E813F818C819D812817390764F4E8811D
:100A0000F9810193F983E88306C0E885F985802F91
:100A10000995892B31F48E819F8101969F838E8366
:100A200002C00FEF1FEFC801DF91CF911F910F910F
:100A30000895FA01AA27283051F1203181F1E89474
:100A40006F936E7F6E5F7F4F8F4F9F4FAF4FB1E0C1
:100A50003ED0B4E03CD0670F781F891F9A1FA11DBC
:100A6000680F791F8A1F911DA11D6A0F711D811DBD
:100A7000911DA11D20D009F468943F912AE0269F82
:100A800011243019305D3193DEF6CF010895462FE1
:100A90004770405D4193B3E00FD0C9F7F6CF462FC2
:100AA0004F70405D4A3318F0495D31FD405241932B
:100AB00002D0A9F7EACFB4E0A695979587957795E8
:100AC0006795BA95C9F700976105710508959B016F
:100AD000AC010A2E06945795479537952795BA95F8
:100AE000C9F7620F731F841F951FA01D08952F92D1
:100AF0003F924F925F926F927F928F929F92AF92AE
:100B0000BF92CF92DF92EF92FF920F931F93CF93FA
:100B1000DF93CDB7DEB7CA1BDB0B0FB6F894DEBF91
:100B20000FBECDBF09942A88398848885F846E84B7
:100B30007D848C849B84AA84B984C884DF80EE8001
:100B4000FD800C811B81AA81B981CE0FD11D0FB60A
:100B5000F894DEBF0FBECDBFED010895F894FFCF2E
:100B6000797979792025750A004D4D2025750A007F
:100B700064642025750A00646F772025750A004893
:100B8000482025750A006D6D2025750A00737320B5
:100B900025750A00010204081020408001020408A3
:100BA0001020408001020408102040800000000254
:100BB00000000000C2020000000000000001000070
:080BC00000000000D202000059
:00000001FF
