:100000000C9434000C9451000C9451000C94510049
:100010000C9451000C9451000C9451000C9451001C
:100020000C9451000C9451000C9451000C9451000C
:100030000C9451000C9451000C9451000C945100FC
:100040000C9451000C9451000C9451000C945100EC
:100050000C9451000C9451000C9451000C945100DC
:100060000C9451000C94510011241FBECFEFD8E026
:10007000DEBFCDBF11E0A0E0B1E0ECEAF4E302C0E6
:1000800005900D92AC36B107D9F711E0ACE6B1E0BE
:1000900001C01D92A237B107E1F70E94F40F0C9442
:1000A000541A0C940000DF93CF93CDB7DEB7EAE289
:1000B000F0E088E38083CF91DF910895DF93CF93C1
:1000C00000D000D0CDB7DEB78C83ABE2B0E0EBE27E
:1000D000F0E0808180618C931B821A822FC0ABE29A
:1000E000B0E0EBE2F0E080818F7D8C938C81882FF3
:1000F00090E00A8002C0880F991F0A94E2F7898372
:100100008981882344F4ABE2B0E0EBE2F0E0808147
:1001100088608C9307C0ABE2B0E0EBE2F0E0808156
:10012000877F8C93ABE2B0E0EBE2F0E0808180620D
:100130008C938A819B8101969B838A838A819B8190
:100140008830910564F20F900F900F900F90CF912F
:10015000DF910895DF93CF9300D00F92CDB7DEB734
:1001600089836A834B838B810E945E008A810E940F
:100170005E0089810E945E000F900F900F90CF91DA
:10018000DF910895DF93CF93CDB7DEB7A4E2B0E05F
:10019000E4E2F0E0808181608C93A4E2B0E0E4E2EC
:1001A000F0E080818C93A4E2B0E0E4E2F0E08081B2
:1001B00082608C93CF91DF9108950F931F93DF930B
:1001C000CF93CDB7DEB7C854D0400FB6F894DEBF9A
:1001D0000FBECDBFA5E2B0E0E5E2F0E080818E7F0A
:1001E0008C93FE01EB5BFF4F80E090E0A0E2B1E476
:1001F00080839183A283B3838E010F5B1F4FFE0127
:10020000EB5BFF4F60817181828193812BEA3AEA37
:100210004AEA50E40E945A13DC01CB01F8018083C2
:100220009183A283B383FE01EF5BFF4F60817181F5
:100230008281938120E030E040E85FE30E94601516
:10024000882334F481E0FE01E05CFF4F80839DC091
:10025000FE01EF5BFF4F608171818281938120E01D
:1002600030E04FE753E40E94001518160CF07EC0F2
:10027000FE01EB5BFF4F608171818281938120E001
:1002800030E04AE754E40E945414DC01CB018CAF07
:100290009DAFAEAFBFAF6CAD7DAD8EAD9FAD20E07D
:1002A00030E04AE755E40E945A13DC01CB0188AFE5
:1002B00099AFAAAFBBAF68AD79AD8AAD9BAD20E079
:1002C00030E040E85FE30E94601588232CF481E071
:1002D00090E09FAB8EAB3FC068AD79AD8AAD9BAD72
:1002E00020E03FEF4FE757E40E94001518164CF549
:1002F0006CAD7DAD8EAD9FAD20E030E040E251E4CD
:100300000E945A13DC01CB01BC01CD010E94841173
:10031000DC01CB019FAB8EAB0FC080E991E09DABC0
:100320008CAB8CA99DA90197F1F79DAB8CAB8EA9E5
:100330009FA901979FAB8EAB8EA99FA9009769F7E4
:100340002DC068AD79AD8AAD9BAD0E948411DC01F2
:10035000CB019FAB8EAB8EA99FA99BAB8AAB8AA921
:100360009BA90197F1F79BAB8AAB18C0FE01EF5B2D
:10037000FF4F60817181828193810E948411DC0131
:10038000CB01FE01E05CFF4F8083FE01E05CFF4F8C
:10039000808189AB89A98A95F1F789ABA5E2B0E0A4
:1003A000E5E2F0E080818C9380E090E0A0E2B1E4AF
:1003B0008DA79EA7AFA7B8AB6DA57EA58FA598A961
:1003C0002BEA3AEA4AEA50E40E945A13DC01CB01D4
:1003D00089A79AA7ABA7BCA769A57AA58BA59CA559
:1003E00020E030E040E85FE30E94601588231CF4C1
:1003F00081E088A791C069A57AA58BA59CA520E07E
:1004000030E04FE753E40E94001518160CF07BC053
:100410006DA57EA58FA598A920E030E04AE754E4B9
:100420000E945414DC01CB018CA39DA3AEA3BFA3F7
:100430006CA17DA18EA19FA120E030E04AE755E4A8
:100440000E945A13DC01CB0188A399A3AAA3BBA3E2
:1004500068A179A18AA19BA120E030E040E85FE398
:100460000E94601588232CF481E090E09F8F8E8F8E
:100470003FC068A179A18AA19BA120E03FEF4FE78F
:1004800057E40E94001518164CF56CA17DA18EA1B1
:100490009FA120E030E040E251E40E945A13DC01C9
:1004A000CB01BC01CD010E948411DC01CB019F8FE7
:1004B0008E8F0FC080E991E09D8F8C8F8C8D9D8DEC
:1004C0000197F1F79D8F8C8F8E8D9F8D01979F8F58
:1004D0008E8F8E8D9F8D009769F724C068A179A1BA
:1004E0008AA19BA10E948411DC01CB019F8F8E8F7A
:1004F0008E8D9F8D9B8F8A8F8A8D9B8D0197F1F7B3
:100500009B8F8A8F0FC069A57AA58BA59CA50E9499
:100510008411DC01CB0188A788A5898F898D8A95F4
:10052000F1F7898FA5E2B0E0E5E2F0E080818C93FD
:1005300080E090E0A0E2B1E48D8B9E8BAF8BB88F12
:100540006D897E898F89988D2BEA3AEA4AEA50E4D0
:100550000E945A13DC01CB01898B9A8BAB8BBC8B2D
:1005600069897A898B899C8920E030E040E85FE3E3
:100570000E94601588231CF481E0888B91C06989F2
:100580007A898B899C8920E030E04FE753E40E9410
:10059000001518160CF07BC06D897E898F89988DA7
:1005A00020E030E04AE754E40E945414DC01CB011F
:1005B0008C879D87AE87BF876C857D858E859F855F
:1005C00020E030E04AE755E40E945A13DC01CB01F9
:1005D00088879987AA87BB87688579858A859B855F
:1005E00020E030E040E85FE30E94601588232CF4AF
:1005F00081E090E09F838E833FC0688579858A85FE
:100600009B8520E03FEF4FE757E40E940015181646
:100610004CF56C857D858E859F8520E030E040E23D
:1006200051E40E945A13DC01CB01BC01CD010E94B0
:100630008411DC01CB019F838E830FC080E991E0A0
:100640009D838C838C819D810197F1F79D838C83A1
:100650008E819F8101979F838E838E819F810097DA
:1006600069F724C0688579858A859B850E948411F5
:10067000DC01CB019F838E838E819F819B838A8344
:100680008A819B810197F1F79B838A830FC06989D7
:100690007A898B899C890E948411DC01CB01888B2B
:1006A0008889898389818A95F1F78983C85BDF4FBF
:1006B0000FB6F894DEBF0FBECDBFCF91DF911F9173
:1006C0000F9108950F931F93DF93CF93CDB7DEB7AC
:1006D000CA54D0400FB6F894DEBF0FBECDBFFE01A6
:1006E000E65BFF4F8083FE01E75BFF4F108292C203
:1006F000A5E2B0E0E5E2F0E080818E7F8C93FE0120
:10070000EB5BFF4F80E090E0A0E2B1E48083918357
:10071000A283B3838E010F5B1F4FFE01EB5BFF4F84
:1007200060817181828193812BEA3AEA4AEA50E43E
:100730000E945A13DC01CB01F80180839183A283CC
:10074000B383FE01EF5BFF4F6081718182819381F2
:1007500020E030E040E85FE30E946015882334F435
:1007600081E0FE01E05CFF4F80839DC0FE01EF5BF6
:10077000FF4F608171818281938120E030E04FE7FB
:1007800053E40E94001518160CF07EC0FE01EB5BCE
:10079000FF4F608171818281938120E030E04AE7E0
:1007A00054E40E945414DC01CB018CAF9DAFAEAF7A
:1007B000BFAF6CAD7DAD8EAD9FAD20E030E04AE7C0
:1007C00055E40E945A13DC01CB0188AF99AFAAAF60
:1007D000BBAF68AD79AD8AAD9BAD20E030E040E8BD
:1007E0005FE30E94601588232CF481E090E09FABCA
:1007F0008EAB3FC068AD79AD8AAD9BAD20E03FEFD9
:100800004FE757E40E94001518164CF56CAD7DAD0E
:100810008EAD9FAD20E030E040E251E40E945A13DB
:10082000DC01CB01BC01CD010E948411DC01CB01B4
:100830009FAB8EAB0FC080E991E09DAB8CAB8CA9D8
:100840009DA90197F1F79DAB8CAB8EA99FA901974C
:100850009FAB8EAB8EA99FA9009769F72DC068AD9D
:1008600079AD8AAD9BAD0E948411DC01CB019FABB9
:100870008EAB8EA99FA99BAB8AAB8AA99BA9019736
:10088000F1F79BAB8AAB18C0FE01EF5BFF4F6081B5
:100890007181828193810E948411DC01CB01FE0170
:1008A000E05CFF4F8083FE01E05CFF4F808189ABFD
:1008B00089A98A95F1F789ABFE01E65BFF4F80813C
:1008C000882F90E081709070882341F0A5E2B0E01D
:1008D000E5E2F0E0808182608C9307C0A5E2B0E0A1
:1008E000E5E2F0E080818D7F8C9380E090E0A0E2F3
:1008F000B1E48DA79EA7AFA7B8AB6DA57EA58FA5C8
:1009000098A92BEA3AEA4AEA50E40E945A13DC0119
:10091000CB0189A79AA7ABA7BCA769A57AA58BA588
:100920009CA520E030E040E85FE30E94601588234A
:100930001CF481E088A791C069A57AA58BA59CA528
:1009400020E030E04FE753E40E94001518160CF049
:100950007BC06DA57EA58FA598A920E030E04AE771
:1009600054E40E945414DC01CB018CA39DA3AEA3DC
:10097000BFA36CA17DA18EA19FA120E030E04AE73A
:1009800055E40E945A13DC01CB0188A399A3AAA3C2
:10099000BBA368A179A18AA19BA120E030E040E837
:1009A0005FE30E94601588232CF481E090E09F8F24
:1009B0008E8F3FC068A179A18AA19BA120E03FEF63
:1009C0004FE757E40E94001518164CF56CA17DA165
:1009D0008EA19FA120E030E040E251E40E945A1332
:1009E000DC01CB01BC01CD010E948411DC01CB01F3
:1009F0009F8F8E8F0FC080E991E09D8F8C8F8C8DA3
:100A00009D8D0197F1F79D8F8C8F8E8D9F8D019716
:100A10009F8F8E8F8E8D9F8D009769F724C068A160
:100A200079A18AA19BA10E948411DC01CB019F8F37
:100A30008E8F8E8D9F8D9B8F8A8F8A8D9B8D019738
:100A4000F1F79B8F8A8F0FC069A57AA58BA59CA50E
:100A50000E948411DC01CB0188A788A5898F898D2C
:100A60008A95F1F7898FA5E2B0E0E5E2F0E08081B8
:100A700081608C9380E090E0A0E2B1E48D8B9E8B4E
:100A8000AF8BB88F6D897E898F89988D2BEA3AEA72
:100A90004AEA50E40E945A13DC01CB01898B9A8BFD
:100AA000AB8BBC8B69897A898B899C8920E030E08B
:100AB00040E85FE30E94601588231CF481E0888B86
:100AC00091C069897A898B899C8920E030E04FE761
:100AD00053E40E94001518160CF07BC06D897E89C6
:100AE0008F89988D20E030E04AE754E40E94541446
:100AF000DC01CB018C879D87AE87BF876C857D85A8
:100B00008E859F8520E030E04AE755E40E945A1325
:100B1000DC01CB0188879987AA87BB87688579859F
:100B20008A859B8520E030E040E85FE30E94601505
:100B300088232CF481E090E09F838E833FC06885FA
:100B400079858A859B8520E03FEF4FE757E40E9437
:100B5000001518164CF56C857D858E859F8520E0E7
:100B600030E040E251E40E945A13DC01CB01BC01A9
:100B7000CD010E948411DC01CB019F838E830FC0C5
:100B800080E991E09D838C838C819D810197F1F7B1
:100B90009D838C838E819F8101979F838E838E811D
:100BA0009F81009769F724C0688579858A859B8530
:100BB0000E948411DC01CB019F838E838E819F81F3
:100BC0009B838A838A819B810197F1F79B838A8328
:100BD0000FC069897A898B899C890E948411DC0104
:100BE000CB01888B8889898389818A95F1F78983EC
:100BF000DE01A65BBF4FFE01E65BFF4F808186955D
:100C00008C93DE01A75BBF4FFE01E75BFF4F808146
:100C10008F5F8C93FE01E75BFF4F8081883008F483
:100C200067CDC65BDF4F0FB6F894DEBF0FBECDBFFA
:100C3000CF91DF911F910F9108950F931F93DF9331
:100C4000CF93CDB7DEB7CA54D0400FB6F894DEBF0D
:100C50000FBECDBFFE01E75BFF4F1082FE01E65BDA
:100C6000FF4F10828CC2A5E2B0E0E5E2F0E08081A7
:100C70008E7F8C93FE01EB5BFF4F80E090E0A0E263
:100C8000B1E480839183A283B3838E010F5B1F4FF6
:100C9000FE01EB5BFF4F60817181828193812BEAC2
:100CA0003AEA4AEA50E40E945A13DC01CB01F80107
:100CB00080839183A283B383FE01EF5BFF4F60814A
:100CC00071818281938120E030E040E85FE30E94FF
:100CD0006015882334F481E0FE01E05CFF4F8083DF
:100CE0009DC0FE01EF5BFF4F608171818281938126
:100CF00020E030E04FE753E40E94001518160CF096
:100D00007EC0FE01EB5BFF4F608171818281938128
:100D100020E030E04AE754E40E945414DC01CB01A7
:100D20008CAF9DAFAEAFBFAF6CAD7DAD8EAD9FADA7
:100D300020E030E04AE755E40E945A13DC01CB0181
:100D400088AF99AFAAAFBBAF68AD79AD8AAD9BADA7
:100D500020E030E040E85FE30E94601588232CF437
:100D600081E090E09FAB8EAB3FC068AD79AD8AADBE
:100D70009BAD20E03FEF4FE757E40E9400151816A7
:100D80004CF56CAD7DAD8EAD9FAD20E030E040E226
:100D900051E40E945A13DC01CB01BC01CD010E9439
:100DA0008411DC01CB019FAB8EAB0FC080E991E0D9
:100DB0009DAB8CAB8CA99DA90197F1F79DAB8CAB3A
:100DC0008EA99FA901979FAB8EAB8EA99FA9009773
:100DD00069F72DC068AD79AD8AAD9BAD0E948411D5
:100DE000DC01CB019FAB8EAB8EA99FA99BAB8AABDD
:100DF0008AA99BA90197F1F79BAB8AAB18C0FE01AA
:100E0000EF5BFF4F60817181828193810E94841129
:100E1000DC01CB01FE01E05CFF4F8083FE01E05C62
:100E2000FF4F808189AB89A98A95F1F789ABDE01F3
:100E3000A75BBF4FFE01E75BFF4F808186958C93D8
:100E4000A3E2B0E0E3E2F0E0808182708C938C91C9
:100E5000882349F0DE01A75BBF4FFE01E75BFF4F30
:100E6000808180688C9380E090E0A0E2B1E48DA75F
:100E70009EA7AFA7B8AB6DA57EA58FA598A92BEAB5
:100E80003AEA4AEA50E40E945A13DC01CB0189A7EE
:100E90009AA7ABA7BCA769A57AA58BA59CA520E0BE
:100EA00030E040E85FE30E94601588231CF481E095
:100EB00088A791C069A57AA58BA59CA520E030E004
:100EC0004FE753E40E94001518160CF07BC06DA587
:100ED0007EA58FA598A920E030E04AE754E40E945F
:100EE0005414DC01CB018CA39DA3AEA3BFA36CA1C2
:100EF0007DA18EA19FA120E030E04AE755E40E9449
:100F00005A13DC01CB0188A399A3AAA3BBA368A1B0
:100F100079A18AA19BA120E030E040E85FE30E9434
:100F2000601588232CF481E090E09F8F8E8F3FC066
:100F300068A179A18AA19BA120E03FEF4FE757E488
:100F40000E94001518164CF56CA17DA18EA19FA1E1
:100F500020E030E040E251E40E945A13DC01CB0172
:100F6000BC01CD010E948411DC01CB019F8F8E8FCB
:100F70000FC080E991E09D8F8C8F8C8D9D8D0197A6
:100F8000F1F79D8F8C8F8E8D9F8D01979F8F8E8F08
:100F90008E8D9F8D009769F724C068A179A18AA1E1
:100FA0009BA10E948411DC01CB019F8F8E8F8E8DBF
:100FB0009F8D9B8F8A8F8A8D9B8D0197F1F79B8FD9
:100FC0008A8F0FC069A57AA58BA59CA50E94841164
:100FD000DC01CB0188A788A5898F898D8A95F1F7D7
:100FE000898FA5E2B0E0E5E2F0E0808181608C933A
:100FF00080E090E0A0E2B1E48D8B9E8BAF8BB88F48
:101000006D897E898F89988D2BEA3AEA4AEA50E405
:101010000E945A13DC01CB01898B9A8BAB8BBC8B62
:1010200069897A898B899C8920E030E040E85FE318
:101030000E94601588231CF481E0888B91C0698927
:101040007A898B899C8920E030E04FE753E40E9445
:10105000001518160CF07BC06D897E898F89988DDC
:1010600020E030E04AE754E40E945414DC01CB0154
:101070008C879D87AE87BF876C857D858E859F8594
:1010800020E030E04AE755E40E945A13DC01CB012E
:1010900088879987AA87BB87688579858A859B8594
:1010A00020E030E040E85FE30E94601588232CF4E4
:1010B00081E090E09F838E833FC0688579858A8533
:1010C0009B8520E03FEF4FE757E40E94001518167C
:1010D0004CF56C857D858E859F8520E030E040E273
:1010E00051E40E945A13DC01CB01BC01CD010E94E6
:1010F0008411DC01CB019F838E830FC080E991E0D6
:101100009D838C838C819D810197F1F79D838C83D6
:101110008E819F8101979F838E838E819F8100970F
:1011200069F724C0688579858A859B850E9484112A
:10113000DC01CB019F838E838E819F819B838A8379
:101140008A819B810197F1F79B838A830FC069890C
:101150007A898B899C890E948411DC01CB01888B60
:101160008889898389818A95F1F78983DE01A65B65
:10117000BF4FFE01E65BFF4F80818F5F8C93FE01C6
:10118000E65BFF4F8081883008F46DCDFE01E75BA0
:10119000FF4F8081C65BDF4F0FB6F894DEBF0FBEF6
:1011A000CDBFCF91DF911F910F910895DF93CF9322
:1011B000CDB7DEB7E2970FB6F894DEBF0FBECDBF56
:1011C00089AB6AABA4E2B0E0E4E2F0E08081826047
:1011D0008C930E94DD0089A90E9462038AA90E9463
:1011E0006203A5E2B0E0E5E2F0E080818E7F8C93BF
:1011F00080E090E0A0E2B1E48DA79EA7AFA7B8ABD6
:101200006DA57EA58FA598A92BEA3AEA4AEA50E493
:101210000E945A13DC01CB0189A79AA7ABA7BCA7F0
:1012200069A57AA58BA59CA520E030E040E85FE3A6
:101230000E94601588231CF481E088A791C069A5ED
:101240007AA58BA59CA520E030E04FE753E40E94EF
:10125000001518160CF07BC06DA57EA58FA598A96A
:1012600020E030E04AE754E40E945414DC01CB0152
:101270008CA39DA3AEA3BFA36CA17DA18EA19FA1B2
:1012800020E030E04AE755E40E945A13DC01CB012C
:1012900088A399A3AAA3BBA368A179A18AA19BA1B2
:1012A00020E030E040E85FE30E94601588232CF4E2
:1012B00081E090E09F8F8E8F3FC068A179A18AA1C5
:1012C0009BA120E03FEF4FE757E40E94001518165E
:1012D0004CF56CA17DA18EA19FA120E030E040E201
:1012E00051E40E945A13DC01CB01BC01CD010E94E4
:1012F0008411DC01CB019F8F8E8F0FC080E991E0BC
:101300009D8F8C8F8C8D9D8D0197F1F79D8F8C8F8C
:101310008E8D9F8D01979F8F8E8F8E8D9F8D0097C5
:1013200069F724C068A179A18AA19BA10E948411B8
:10133000DC01CB019F8F8E8F8E8D9F8D9B8F8A8F2F
:101340008A8D9B8D0197F1F79B8F8A8F0FC069A5BE
:101350007AA58BA59CA50E948411DC01CB0188A7EE
:1013600088A5898F898D8A95F1F7898FA5E2B0E0EC
:10137000E5E2F0E080818C9380E090E0A0E2B1E4CF
:101380008D8B9E8BAF8BB88F6D897E898F89988D61
:101390002BEA3AEA4AEA50E40E945A13DC01CB01F4
:1013A000898B9A8BAB8BBC8B69897A898B899C8959
:1013B00020E030E040E85FE30E94601588231CF4E1
:1013C00081E0888B91C069897A898B899C8920E02A
:1013D00030E04FE753E40E94001518160CF07BC074
:1013E0006D897E898F89988D20E030E04AE754E44A
:1013F0000E945414DC01CB018C879D87AE87BF8788
:101400006C857D858E859F8520E030E04AE755E438
:101410000E945A13DC01CB0188879987AA87BB8772
:10142000688579858A859B8520E030E040E85FE328
:101430000E94601588232CF481E090E09F838E83C6
:101440003FC0688579858A859B8520E03FEF4FE71F
:1014500057E40E94001518164CF56C857D858E8525
:101460009F8520E030E040E251E40E945A13DC0105
:10147000CB01BC01CD010E948411DC01CB019F8313
:101480008E830FC080E991E09D838C838C819D8148
:101490000197F1F79D838C838E819F8101979F83B4
:1014A0008E838E819F81009769F724C06885798536
:1014B0008A859B850E948411DC01CB019F838E83EA
:1014C0008E819F819B838A838A819B810197F1F71B
:1014D0009B838A830FC069897A898B899C890E9442
:1014E0008411DC01CB01888B8889898389818A9565
:1014F000F1F78983E2960FB6F894DEBF0FBECDBF39
:10150000CF91DF910895DF93CF93CDB7DEB7E29708
:101510000FB6F894DEBF0FBECDBF8AABA4E2B0E039
:10152000E4E2F0E0808182608C930E94DD008AA971
:101530000E946203A4E2B0E0E4E2F0E080818D7FEB
:101540008C930E941D0689ABA5E2B0E0E5E2F0E0D5
:1015500080818E7F8C9380E090E0A0E2B1E48DA743
:101560009EA7AFA7B8AB6DA57EA58FA598A92BEABE
:101570003AEA4AEA50E40E945A13DC01CB0189A7F7
:101580009AA7ABA7BCA769A57AA58BA59CA520E0C7
:1015900030E040E85FE30E94601588231CF481E09E
:1015A00088A791C069A57AA58BA59CA520E030E00D
:1015B0004FE753E40E94001518160CF07BC06DA590
:1015C0007EA58FA598A920E030E04AE754E40E9468
:1015D0005414DC01CB018CA39DA3AEA3BFA36CA1CB
:1015E0007DA18EA19FA120E030E04AE755E40E9452
:1015F0005A13DC01CB0188A399A3AAA3BBA368A1BA
:1016000079A18AA19BA120E030E040E85FE30E943D
:10161000601588232CF481E090E09F8F8E8F3FC06F
:1016200068A179A18AA19BA120E03FEF4FE757E491
:101630000E94001518164CF56CA17DA18EA19FA1EA
:1016400020E030E040E251E40E945A13DC01CB017B
:10165000BC01CD010E948411DC01CB019F8F8E8FD4
:101660000FC080E991E09D8F8C8F8C8D9D8D0197AF
:10167000F1F79D8F8C8F8E8D9F8D01979F8F8E8F11
:101680008E8D9F8D009769F724C068A179A18AA1EA
:101690009BA10E948411DC01CB019F8F8E8F8E8DC8
:1016A0009F8D9B8F8A8F8A8D9B8D0197F1F79B8FE2
:1016B0008A8F0FC069A57AA58BA59CA50E9484116D
:1016C000DC01CB0188A788A5898F898D8A95F1F7E0
:1016D000898FA5E2B0E0E5E2F0E080818C9380E0C4
:1016E00090E0A0E2B1E48D8B9E8BAF8BB88F6D89BB
:1016F0007E898F89988D2BEA3AEA4AEA50E40E9463
:101700005A13DC01CB01898B9A8BAB8BBC8B69891B
:101710007A898B899C8920E030E040E85FE30E9471
:10172000601588231CF481E0888B91C069897A89CF
:101730008B899C8920E030E04FE753E40E9400153C
:1017400018160CF07BC06D897E898F89988D20E0FA
:1017500030E04AE754E40E945414DC01CB018C874A
:101760009D87AE87BF876C857D858E859F8520E0B0
:1017700030E04AE755E40E945A13DC01CB01888728
:101780009987AA87BB87688579858A859B8520E0AC
:1017900030E040E85FE30E94601588232CF481E08C
:1017A00090E09F838E833FC0688579858A859B857D
:1017B00020E03FEF4FE757E40E94001518164CF564
:1017C0006C857D858E859F8520E030E040E251E488
:1017D0000E945A13DC01CB01BC01CD010E9484118F
:1017E000DC01CB019F838E830FC080E991E09D8354
:1017F0008C838C819D810197F1F79D838C838E81F1
:101800009F8101979F838E838E819F81009769F7C7
:1018100024C0688579858A859B850E948411DC01B6
:10182000CB019F838E838E819F819B838A838A8154
:101830009B810197F1F79B838A830FC069897A891D
:101840008B899C890E948411DC01CB01888B88895B
:10185000898389818A95F1F7898389A9E2960FB6F0
:10186000F894DEBF0FBECDBFCF91DF9108950F93E7
:101870001F93DF93CF93CDB7DEB7E3970FB6F894FE
:10188000DEBF0FBECDBF9BAB8AABA4E2B0E0E4E20B
:10189000F0E0808182608C930E94DD008FEB0E94DB
:1018A0006203A4E2B0E0E4E2F0E080818D7F8C93FB
:1018B00019AA0FC089A9282F30E08AA99BA98C01F9
:1018C000020F131F0E941D06F801808389A98F5FF4
:1018D00089AB89A9873070F3A5E2B0E0E5E2F0E0DA
:1018E00080818E7F8C9380E090E0A0E2B1E48DA7B0
:1018F0009EA7AFA7B8AB6DA57EA58FA598A92BEA2B
:101900003AEA4AEA50E40E945A13DC01CB0189A763
:101910009AA7ABA7BCA769A57AA58BA59CA520E033
:1019200030E040E85FE30E94601588231CF481E00A
:1019300088A791C069A57AA58BA59CA520E030E079
:101940004FE753E40E94001518160CF07BC06DA5FC
:101950007EA58FA598A920E030E04AE754E40E94D4
:101960005414DC01CB018CA39DA3AEA3BFA36CA137
:101970007DA18EA19FA120E030E04AE755E40E94BE
:101980005A13DC01CB0188A399A3AAA3BBA368A126
:1019900079A18AA19BA120E030E040E85FE30E94AA
:1019A000601588232CF481E090E09F8F8E8F3FC0DC
:1019B00068A179A18AA19BA120E03FEF4FE757E4FE
:1019C0000E94001518164CF56CA17DA18EA19FA157
:1019D00020E030E040E251E40E945A13DC01CB01E8
:1019E000BC01CD010E948411DC01CB019F8F8E8F41
:1019F0000FC080E991E09D8F8C8F8C8D9D8D01971C
:101A0000F1F79D8F8C8F8E8D9F8D01979F8F8E8F7D
:101A10008E8D9F8D009769F724C068A179A18AA156
:101A20009BA10E948411DC01CB019F8F8E8F8E8D34
:101A30009F8D9B8F8A8F8A8D9B8D0197F1F79B8F4E
:101A40008A8F0FC069A57AA58BA59CA50E948411D9
:101A5000DC01CB0188A788A5898F898D8A95F1F74C
:101A6000898FA5E2B0E0E5E2F0E080818C9380E030
:101A700090E0A0E2B1E48D8B9E8BAF8BB88F6D8927
:101A80007E898F89988D2BEA3AEA4AEA50E40E94CF
:101A90005A13DC01CB01898B9A8BAB8BBC8B698988
:101AA0007A898B899C8920E030E040E85FE30E94DE
:101AB000601588231CF481E0888B91C069897A893C
:101AC0008B899C8920E030E04FE753E40E940015A9
:101AD00018160CF07BC06D897E898F89988D20E067
:101AE00030E04AE754E40E945414DC01CB018C87B7
:101AF0009D87AE87BF876C857D858E859F8520E01D
:101B000030E04AE755E40E945A13DC01CB01888794
:101B10009987AA87BB87688579858A859B8520E018
:101B200030E040E85FE30E94601588232CF481E0F8
:101B300090E09F838E833FC0688579858A859B85E9
:101B400020E03FEF4FE757E40E94001518164CF5D0
:101B50006C857D858E859F8520E030E040E251E4F4
:101B60000E945A13DC01CB01BC01CD010E948411FB
:101B7000DC01CB019F838E830FC080E991E09D83C0
:101B80008C838C819D810197F1F79D838C838E815D
:101B90009F8101979F838E838E819F81009769F734
:101BA00024C0688579858A859B850E948411DC0123
:101BB000CB019F838E838E819F819B838A838A81C1
:101BC0009B810197F1F79B838A830FC069897A898A
:101BD0008B899C890E948411DC01CB01888B8889C8
:101BE000898389818A95F1F78983E3960FB6F89402
:101BF000DEBF0FBECDBFCF91DF911F910F91089532
:101C0000DF93CF93CDB7DEB7E3970FB6F894DEBF7F
:101C10000FBECDBF9BAB8AAB8EE860E00E94D608BA
:101C20000E94DD008EEB0E94620319AA0EC089A9F2
:101C3000282F30E08AA99BA9FC01E20FF31F8081C5
:101C40000E94620389A98F5F89AB89A9873078F3E5
:101C500080E00E946203A5E2B0E0E5E2F0E080816E
:101C60008E7F8C9380E090E0A0E2B1E48DA79EA7E8
:101C7000AFA7B8AB6DA57EA58FA598A92BEA3AEAC8
:101C80004AEA50E40E945A13DC01CB0189A79AA7C3
:101C9000ABA7BCA769A57AA58BA59CA520E030E0E1
:101CA00040E85FE30E94601588231CF481E088A768
:101CB00091C069A57AA58BA59CA520E030E04FE7EF
:101CC00053E40E94001518160CF07BC06DA57EA58C
:101CD0008FA598A920E030E04AE754E40E9454140C
:101CE000DC01CB018CA39DA3AEA3BFA36CA17DA1FE
:101CF0008EA19FA120E030E04AE755E40E945A13EC
:101D0000DC01CB0188A399A3AAA3BBA368A179A1F5
:101D10008AA19BA120E030E040E85FE30E946015CB
:101D200088232CF481E090E09F8F8E8F3FC068A1C4
:101D300079A18AA19BA120E03FEF4FE757E40E94E1
:101D4000001518164CF56CA17DA18EA19FA120E075
:101D500030E040E251E40E945A13DC01CB01BC01A7
:101D6000CD010E948411DC01CB019F8F8E8F0FC0AB
:101D700080E991E09D8F8C8F8C8D9D8D0197F1F77F
:101D80009D8F8C8F8E8D9F8D01979F8F8E8F8E8DC7
:101D90009F8D009769F724C068A179A18AA19BA1B2
:101DA0000E948411DC01CB019F8F8E8F8E8D9F8DC1
:101DB0009B8F8A8F8A8D9B8D0197F1F79B8F8A8FDE
:101DC0000FC069A57AA58BA59CA50E948411DC0192
:101DD000CB0188A788A5898F898D8A95F1F7898F8E
:101DE000A5E2B0E0E5E2F0E080818C9380E090E055
:101DF000A0E2B1E48D8B9E8BAF8BB88F6D897E890D
:101E00008F89988D2BEA3AEA4AEA50E40E945A13E5
:101E1000DC01CB01898B9A8BAB8BBC8B69897A896E
:101E20008B899C8920E030E040E85FE30E946015E8
:101E300088231CF481E0888B91C069897A898B8919
:101E40009C8920E030E04FE753E40E94001518160B
:101E50000CF07BC06D897E898F89988D20E030E001
:101E60004AE754E40E945414DC01CB018C879D871F
:101E7000AE87BF876C857D858E859F8520E030E0AD
:101E80004AE755E40E945A13DC01CB018887998701
:101E9000AA87BB87688579858A859B8520E030E0A5
:101EA00040E85FE30E94601588232CF481E090E015
:101EB0009F838E833FC0688579858A859B8520E0D6
:101EC0003FEF4FE757E40E94001518164CF56C855C
:101ED0007D858E859F8520E030E040E251E40E94C0
:101EE0005A13DC01CB01BC01CD010E948411DC013D
:101EF000CB019F838E830FC080E991E09D838C830B
:101F00008C819D810197F1F79D838C838E819F81C8
:101F100001979F838E838E819F81009769F724C0EC
:101F2000688579858A859B850E948411DC01CB01B7
:101F30009F838E838E819F819B838A838A819B81ED
:101F40000197F1F79B838A830FC069897A898B890E
:101F50009C890E948411DC01CB01888B888989834C
:101F600089818A95F1F78983E3960FB6F894DEBFED
:101F70000FBECDBFCF91DF910895DF93CF9300D0F7
:101F80000F92CDB7DEB78A836B838B81882F90E069
:101F90009C012F5F3F4F81E090E002C0880F991FA6
:101FA0002A95E2F7815089839A81898189238A83DE
:101FB0008A81482F4F708A8182958F70882F90E098
:101FC00090709C01220F331FC901880F991F880F41
:101FD000991F820F931F840F8A838A810F900F901D
:101FE0000F90CF91DF910895DF93CF93CDB7DEB7F8
:101FF00066970FB6F894DEBF0FBECDBF0E945300A8
:102000000E942E1188E191E090936F0180936E0100
:1020100086E291E090936D0180936C010E94C20072
:10202000CE010F960E94370C8F85282F30E000D00C
:1020300000D0EDB7FEB7319684E391E091838083C1
:10204000338322830E94C2170F900F900F900F903E
:102050008889282F30E000D000D0EDB7FEB7319648
:102060008AE391E091838083338322830E94C217A5
:102070000F900F900F900F908989282F30E000D09B
:1020800000D0EDB7FEB7319680E491E09183808374
:10209000338322830E94C2170F900F900F900F90EE
:1020A0008A89282F30E000D000D0EDB7FEB73196F6
:1020B00086E491E091838083338322830E94C21758
:1020C0000F900F900F900F908B89282F30E000D049
:1020D00000D0EDB7FEB731968CE491E09183808318
:1020E000338322830E94C2170F900F900F900F909E
:1020F0008C89282F30E000D000D0EDB7FEB73196A4
:1021000082E591E091838083338322830E94C2170A
:102110000F900F900F900F908D89282F30E000D0F6
:1021200000D0EDB7FEB7319688E591E091838083CA
:10213000338322830E94C2170F900F900F900F904D
:102140008E89282F30E000D000D0EDB7FEB7319651
:102150008EE591E091838083338322830E94C217AE
:102160000F900F900F900F9080E090E0AAE7B4E4FA
:102170008B879C87AD87BE876B857C858D859E858B
:1021800020E030E04AE755E40E945A13DC01CB011D
:102190008F839887A987BA876F81788589859A8583
:1021A00020E030E040E85FE30E94601588232CF4D3
:1021B00081E090E09E838D833FC06F817885898523
:1021C0009A8520E03FEF4FE757E40E94001518166C
:1021D0004CF56B857C858D859E8520E030E040E266
:1021E00051E40E945A13DC01CB01BC01CD010E94D5
:1021F0008411DC01CB019E838D830FC080E991E0C7
:102200009C838B838B819C810197F1F79C838B83CB
:102210008D819E8101979E838D838D819E81009704
:1022200069F714C06F81788589859A850E94841129
:10223000DC01CB019E838D838D819E819A8389836E
:1022400089819A810197F1F79A8389838F859F8588
:102250002F85692F422F0E94AA00E0CEDF93CF93F3
:10226000CDB7DEB7E5ECF0E01082E4ECF0E087E615
:102270008083A0ECB0E0E0ECF0E080818D7F8C9377
:10228000E2ECF0E086E08083E1ECF0E088E180833E
:10229000CF91DF910895DF93CF9300D00F92CDB708
:1022A000DEB789837B836A8389818A3031F42A810E
:1022B0003B818DE0B9010E944B11E0ECF0E08081A0
:1022C000882F90E0807290700097B9F3E6ECF0E010
:1022D000898180830F900F900F90CF91DF910895A7
:1022E000DF93CF9300D0CDB7DEB79A838983E0EC3C
:1022F000F0E080818823DCF7E6ECF0E080810F904D
:102300000F90CF91DF910895EF92FF920F931F935B
:102310007B018C0120E030E040E05FE40E9430155A
:1023200088238CF0C801B70120E030E040E05FE492
:102330000E94FC120E9490159B01AC01205030407D
:102340004040504806C0C801B7010E9490159B014B
:10235000AC01B901CA011F910F91FF90EF90089550
:10236000A0E0B0E0E6EBF1E10C948B17DC012B016F
:10237000FA019C91923008F439C1EB0188818230D6
:1023800008F433C1943069F4843009F02FC11196F8
:102390009C9111978981981709F428C1A4E6B1E0AE
:1023A00025C1843009F421C18230A9F4923009F0AA
:1023B0001DC19A01AD0188E0EA010990AE01E90171
:1023C00009929E018150C1F7E201898111969C9189
:1023D0008923818308C1923009F407C112962D9098
:1023E0003C901397EB018A819B811496AD90BD9030
:1023F000CD90DC901797EC80FD800E811F819101BC
:10240000281B390BB90137FF04C066277727621BE9
:10241000730B603271050CF061C0121613066CF577
:1024200037014801062E04C09694879477946794E8
:102430000A94D2F721E030E040E050E004C0220FDF
:10244000331F441F551F6A95D2F72150304040403A
:1024500050402E213F2140235123211531054105B4
:10246000510521F021E030E040E050E079018A019F
:10247000E628F728082919293CC0232BD1F1260E7C
:10248000371E35014601062E04C096948794779432
:1024900067940A94D2F721E030E040E050E004C0B5
:1024A000220F331F441F551F6A95D2F72150304029
:1024B000404050402A213B214C215D21211531050E
:1024C0004105510521F021E030E040E050E05901A4
:1024D0006A01A628B728C828D9280BC082159305F9
:1024E0002CF01C01AA24BB24650103C0EE24FF24A8
:1024F000870111969C91D20111968C91981709F43D
:1025000045C0992339F0A80197012A193B094C09C4
:102510005D0906C0A60195012E193F09400B510B1C
:1025200057FD08C01182338222822483358346837B
:1025300057831DC081E081833382228288279927B7
:10254000DC01821B930BA40BB50B84839583A683BC
:10255000B7830DC0220F331F441F551F24833583BB
:102560004683578382819381019793838283248159
:10257000358146815781DA01C9010197A109B10965
:102580008F5F9F4FAF4FBF4328F30BC091833382C0
:102590002282EA0CFB1C0C1D1D1DE482F5820683C1
:1025A000178383E08083248135814681578157FFDB
:1025B0001AC0C901AA2797FDA095BA2F8170907003
:1025C000A070B0705695479537952795822B932B21
:1025D000A42BB52B84839583A683B78382819381B3
:1025E000019693838283DF0101C0D201CD01CDB773
:1025F000DEB7E2E10C94A717A0E2B0E0E2E0F3E17D
:102600000C94971769837A838B839C832D833E83F5
:102610004F835887E9E0EE2EF12CEC0EFD1ECE0123
:102620000196B7010E94BA168E010F5E1F4FCE01B0
:102630000596B8010E94BA168A8991E089278A8B8B
:10264000C701B801AE01475E5F4F0E94B0110E9402
:10265000E415A096E6E00C94B317A0E2B0E0E3E343
:10266000F3E10C94971769837A838B839C832D8382
:102670003E834F835887F9E0EF2EF12CEC0EFD1EC0
:10268000CE010196B7010E94BA168E010F5E1F4F50
:10269000CE010596B8010E94BA16C701B801AE0175
:1026A000475E5F4F0E94B0110E94E415A096E6E0DD
:1026B0000C94B317A0E2B0E0E0E6F3E10C948B17C2
:1026C00069837A838B839C832D833E834F835887D2
:1026D000CE010196BE01675F7F4F0E94BA16CE0100
:1026E0000596BE016F5E7F4F0E94BA1699859230A3
:1026F00088F089898230C8F0943019F4823051F41E
:1027000004C0843029F4923081F484E691E0C6C09C
:10271000923049F420E09A858A89981321E02A872B
:10272000CE010996BBC0823049F420E09A858A899F
:10273000981321E02A8BCE014196B0C02D843E84AF
:102740004F8458886D887E888F88988CEE24FF246B
:102750008701AA24BB24650140E050E060E070E0FE
:10276000E0E0F0E0C10181709070892BE9F0E60CA7
:10277000F71C081D191D9A01AB012A0D3B1D4C1DAC
:102780005D1D80E090E0A0E0B0E0E614F7040805ED
:10279000190520F481E090E0A0E0B0E0BA01A901C1
:1027A000480F591F6A1F7B1FAA0CBB1CCC1CDD1CC9
:1027B00097FE08C081E090E0A0E0B0E0A82AB92A26
:1027C000CA2ADB2A3196E032F10549F0660C771C03
:1027D000881C991C5694479437942794C3CFFA8544
:1027E000EA892B893C898B859C85280F391F2E5FB0
:1027F0003F4F17C0CA0181709070892B61F0169508
:102800000795F794E79480E090E0A0E0B0E8E82A2C
:10281000F92A0A2B1B2B76956795579547952F5FBD
:102820003F4F77FDE7CF0CC0440F551F661F771F42
:1028300017FD4160EE0CFF1C001F111F215030409E
:10284000403090E0590790E0690790E4790760F321
:102850002B8F3C8FDB01CA018F779070A070B07016
:1028600080349105A105B10561F447FD0AC0E1146A
:10287000F1040105110529F0405C5F4F6F4F7F4F58
:1028800040781A8EFE1711F081E08A8F4D8F5E8F8F
:102890006F8F78A383E0898FCE0149960E94E4155B
:1028A000A096E2E10C94A717A8E1B0E0EAE5F4E114
:1028B0000C94931769837A838B839C832D833E8347
:1028C0004F835887B9E0EB2EF12CEC0EFD1ECE01A4
:1028D0000196B7010E94BA168E010F5E1F4FCE01FE
:1028E0000596B8010E94BA162985223008F47EC0E8
:1028F0003989323010F4B8017CC08A859A898927D9
:102900008A87243011F0223031F4231709F06EC089
:1029100064E671E06EC0343039F41D861E861F8671
:10292000188A1C861B8604C0323021F484E0898713
:10293000B7015FC02B853C858B899C89281B390B8F
:102940003C872B87ED84FE840F851889AD88BE886F
:10295000CF88D88CEA14FB040C051D0540F4EE0C5E
:10296000FF1C001F111F215030403C872B8720E0A7
:1029700030E040E050E080E090E0A0E0B0E460E0D3
:1029800070E0EA14FB040C051D0540F0282B392BE0
:102990004A2B5B2BEA18FB080C091D09B695A79575
:1029A00097958795EE0CFF1C001F111F6F5F7F4FDF
:1029B0006F31710531F7DA01C9018F779070A0701E
:1029C000B07080349105A105B10561F427FD0AC0FE
:1029D000E114F1040105110529F0205C3F4F4F4F30
:1029E0005F4F20782D873E874F87588BBE01675FEA
:1029F0007F4FCB010E94E4156896EAE00C94AF1774
:102A0000A8E1B0E0E6E0F5E10C94971769837A83DA
:102A10008B839C832D833E834F83588789E0E82EE8
:102A2000F12CEC0EFD1ECE010196B7010E94BA16E4
:102A30008E010F5E1F4FCE010596B8010E94BA1697
:102A40008985823040F08989823028F0C701B80139
:102A50000E94321701C08FEF6896E6E00C94B3171E
:102A6000A8E1B0E0E6E3F5E10C94971769837A8377
:102A70008B839C832D833E834F83588789E0E82E88
:102A8000F12CEC0EFD1ECE010196B7010E94BA1684
:102A90008E010F5E1F4FCE010596B8010E94BA1637
:102AA0008985823040F08989823028F0C701B801D9
:102AB0000E94321701C08FEF6896E6E00C94B317BE
:102AC000A8E1B0E0E6E6F5E10C94971769837A8314
:102AD0008B839C832D833E834F83588789E0E82E28
:102AE000F12CEC0EFD1ECE010196B7010E94BA1624
:102AF0008E010F5E1F4FCE010596B8010E94BA16D7
:102B00008985823040F08989823028F0C701B80178
:102B10000E94321701C081E06896E6E00C94B3177A
:102B2000ACE0B0E0E6E9F5E10C949B1769837A83A9
:102B30008B839C83CE010196BE016B5F7F4F0E9409
:102B4000BA168D81823061F1823050F1843021F4E7
:102B50008E81882351F12EC02F81388537FD20C00A
:102B60006E812F3131051CF06623F9F023C08EE110
:102B700090E0821B930B29853A854B855C8504C0C8
:102B800056954795379527958A95D2F76623B1F0E4
:102B900050954095309521953F4F4F4F5F4F0EC058
:102BA00020E030E040E050E009C02FEF3FEF4FEF72
:102BB0005FE704C020E030E040E050E8B901CA011E
:102BC0002C96E2E00C94B717DF92EF92FF920F93EE
:102BD0001F93FC01E480F58006811781D1808081FC
:102BE000823058F480E090E0A0E1B0E0E82AF92AD1
:102BF0000A2B1B2BEFEFF0E0A6C0843009F49EC037
:102C0000823019F4E0E0F0E09BC0E114F10401052A
:102C1000110519F4E0E0F0E096C0628173819FEF46
:102C2000623879070CF05BC022E83FEF261B370BB8
:102C30002A3131052CF020E030E040E050E02AC09D
:102C4000B801A701022E04C0769567955795479560
:102C50000A94D2F781E090E0A0E0B0E004C0880FD1
:102C6000991FAA1FBB1F2A95D2F70197A109B10985
:102C70008E219F21A023B1230097A105B10521F04A
:102C800081E090E0A0E0B0E09A01AB01282B392B65
:102C90004A2B5B2BDA01C9018F779070A070B0705E
:102CA00080349105A105B10539F427FF09C0205CE6
:102CB0003F4F4F4F5F4F04C0215C3F4F4F4F5F4F1F
:102CC000E0E0F0E02030A0E03A07A0E04A07A0E40E
:102CD0005A0710F0E1E0F0E079018A0127C060387E
:102CE000710564F5FB01E158FF4FD801C7018F77EB
:102CF0009070A070B07080349105A105B10539F4D1
:102D0000E7FE0DC080E490E0A0E0B0E004C08FE3F7
:102D100090E0A0E0B0E0E80EF91E0A1F1B1F17FFAD
:102D200005C016950795F794E794319687E01695B8
:102D30000795F794E7948A95D1F705C0EFEFF0E097
:102D4000EE24FF2487016E2F679566276795902FE5
:102D50009F77D794DD24D7948E2F8695492F462BC5
:102D6000582F5D29B701CA011F910F91FF90EF9075
:102D7000DF900895FC01DB01408151812281622FA7
:102D80006F7770E0221F2227221F9381892F880FDF
:102D9000822B282F30E0991F9927991F11969C9319
:102DA000119721153105A9F54115510561057105E9
:102DB00011F482E037C082E89FEF13969C938E93C4
:102DC00012979A01AB0167E0220F331F441F551F72
:102DD0006A95D1F783E08C930DC0220F331F441FF7
:102DE000551F12968D919C911397019713969C9362
:102DF0008E931297203080E0380780E0480780E407
:102E0000580758F314962D933D934D935C93179761
:102E100008952F3F310579F441155105610571057C
:102E200019F484E08C93089564FF03C081E08C93CF
:102E300012C01C9210C02F57304013963C932E9313
:102E4000129783E08C9387E0440F551F661F771F0E
:102E50008A95D1F7706414964D935D936D937C932E
:102E6000179708951F93DC01FB019C91923008F4A1
:102E700047C08081823008F443C0943051F41196E9
:102E80001C91843099F58181682F70E0611B710974
:102E90003FC0843021F0923031F48230B9F1818129
:102EA000882389F12DC011961C9111978230F1F081
:102EB00081811817D9F412962D913C911397828134
:102EC00093818217930794F028173907BCF0149662
:102ED0008D919D910D90BC91A02D248135814681CD
:102EE0005781281739074A075B0718F4112341F067
:102EF0000AC082179307A407B50740F4112319F0FD
:102F000061E070E005C06FEF7FEF02C060E070E04D
:102F1000CB011F9108952F923F924F925F926F9233
:102F20007F928F929F92AF92BF92CF92DF92EF9259
:102F3000FF920F931F93CF93DF93CDB7DEB7CA1BDA
:102F4000DB0B0FB6F894DEBF0FBECDBF09942A8805
:102F5000398848885F846E847D848C849B84AA84AD
:102F6000B984C884DF80EE80FD800C811B81AA813A
:102F7000B981CE0FD11D0FB6F894DEBF0FBECDBF05
:102F8000ED010895A0E0B0E0E8ECF7E10C949B17A8
:102F9000FE0135966191719180916E0190916F0162
:102FA000AF010E94D7172096E2E00C94B717ABE070
:102FB000B0E0EDEDF7E10C948B173C012B015A01C9
:102FC000FC0117821682838181FD03C06FEF7FEFC2
:102FD000C6C19AE0892E1E010894211C311CF30100
:102FE0002381F20123FD859123FF81912F01882305
:102FF00009F4B2C1853239F423FD859123FF819113
:103000002F01853229F490E0B3010E94CA19E7CF5D
:10301000982FFF24EE249924FFE1FF15D0F09B3276
:1030200069F09C3228F4903259F0933291F40EC03A
:103030009D3249F0903369F441E024C052E0F52A12
:1030400084E0F82A28C098E0F92A25C0E0E1FE2AA9
:1030500022C0F7FC29C0892F80538A3070F4F6FE15
:1030600005C0989C902C1124980E15C0E89CE02C6B
:103070001124E80EF0E2FF2A0EC09E3229F4F6FC7D
:103080006BC140E4F42A07C09C3619F450E8F52AD5
:1030900002C0983649F4F20123FD959123FF9191E6
:1030A0002F01992309F0B8CF892F8554833018F068
:1030B0008052833038F444E050E0A40EB51E5FE344
:1030C00059830FC0933631F0933779F0933509F077
:1030D00056C020C0F5018081898342E050E0A40EF3
:1030E000B51E610101E010E012C0F501C080D18081
:1030F000F6FC03C06FEF7FEF02C0692D70E042E085
:1031000050E0A40EB51EC6010E94BF198C015FE7F6
:10311000F52214C0F501C080D180F6FC03C06FEF2A
:103120007FEF02C0692D70E042E050E0A40EB51EB2
:10313000C6010E94B4198C0150E8F52AF3FE07C0BD
:103140001AC080E290E0B3010E94CA19EA948E2D61
:1031500090E008171907A8F30EC0F601F7FC859157
:10316000F7FE81916F0190E0B3010E94CA19E1104E
:10317000EA94015010400115110579F7EAC0943620
:1031800011F0993669F5F7FE08C0F501208131810B
:103190004281538184E090E00AC0F50180819181F1
:1031A0009C01442737FD4095542F82E090E0A80E03
:1031B000B91E9FE6F92257FF09C0509540953095FA
:1031C00021953F4F4F4F5F4FE0E8FE2ACA01B901FA
:1031D000A1012AE030E00E94F619D82ED21840C092
:1031E000953729F41F2D1F7E2AE030E01DC01F2DCA
:1031F000197F9F3661F0903720F4983509F0ACC004
:103200000FC0903739F0983709F0A6C004C028E005
:1032100030E00AC0106114FD146020E130E004C009
:1032200014FD166020E132E017FF08C0F50160814F
:1032300071818281938144E050E008C0F501808172
:103240009181BC0180E090E042E050E0A40EB51E08
:10325000A1010E94F619D82ED2188FE7F82EF1227C
:10326000F6FE0BC05EEFF522D91438F4F4FE07C069
:10327000F2FC05C08FEEF82202C01D2D01C0192DF1
:10328000F4FE0DC0FE01ED0DF11D8081803319F4B7
:1032900099EEF92208C01F5FF2FE05C003C08F2D12
:1032A000867809F01F5F0F2DF3FC14C0F0FE0FC0ED
:1032B0001E1510F09D2C0BC09D2C9E0C911A1E2DDE
:1032C00006C080E290E0B3010E94CA191F5F1E157C
:1032D000C0F304C01E1510F4E11A01C0EE2404FF6F
:1032E0000FC080E390E0B3010E94CA1902FF1DC025
:1032F00001FD03C088E790E00EC088E590E00BC0B8
:10330000802F867891F001FF02C08BE201C080E23D
:10331000F7FC8DE290E0B3010E94CA1906C080E379
:1033200090E0B3010E94CA199A94D914C0F3DA94B8
:10333000F101ED0DF11D808190E0B3010E94CA19E9
:10334000DD20A9F706C080E290E0B3010E94CA190F
:10335000EA94EE20C1F743CEF30166817781CB0179
:103360002B96E2E10C94A717FC0105906150704088
:103370000110D8F7809590958E0F9F1F0895FC013E
:103380006150704001900110D8F7809590958E0F94
:103390009F1F08950F931F93CF93DF938C01EB0131
:1033A0008B8181FF1BC082FF0DC02E813F818C81EC
:1033B0009D812817390764F4E881F9810193F98325
:1033C000E88306C0E885F985802F0995892B31F4BB
:1033D0008E819F8101969F838E8302C00FEF1FEF26
:1033E000C801DF91CF911F910F910895FA01AA278B
:1033F000283051F1203181F1E8946F936E7F6E5F38
:103400007F4F8F4F9F4FAF4FB1E03ED0B4E03CD0E5
:10341000670F781F891F9A1FA11D680F791F8A1FC8
:10342000911DA11D6A0F711D811D911DA11D20D02F
:1034300009F468943F912AE0269F11243019305DE9
:103440003193DEF6CF010895462F4770405D4193DA
:10345000B3E00FD0C9F7F6CF462F4F70405D4A3327
:1034600018F0495D31FD4052419302D0A9F7EACFEF
:10347000B4E0A6959795879577956795BA95C9F71E
:1034800000976105710508959B01AC010A2E069411
:103490005795479537952795BA95C9F7620F731FCA
:0C34A000841F951FA01D0895F894FFCF15
:1034AC000102040810204080010204081020408012
:1034BC0001020408102040800000000200000000FF
:1034CC004B11000000000000000100000000000093
:1034DC0070110000302025780A00312025780A0070
:1034EC00322025780A00332025780A0034202578EC
:1034FC000A00352025780A00362025780A00372066
:0C350C0025780A0000000000000000000C
:00000001FF
