:100000000C9434000C9451000C9451000C94510049
:100010000C9451000C9463080C9451000C94510002
:100020000C9451000C9451000C9451000C9451000C
:100030000C9451000C9451000C9451000C945100FC
:100040000C9451000C9451000C9451000C945100EC
:100050000C9451000C9451000C9451000C945100DC
:100060000C9451000C94510011241FBECFEFD4E02A
:10007000DEBFCDBF11E0A0E0B1E0E8E1FEE302C0E9
:1000800005900D92A432B107D9F711E0A4E2B1E0D6
:1000900001C01D92AB32B107E1F70E94DF180C944A
:1000A0000A1F0C940000DF93CF93CDB7DEB7A4E214
:1000B000B0E0E4E2F0E0808182608C93A4E2B0E002
:1000C000E4E2F0E0808181608C93CF91DF9108952C
:1000D000DF93CF93CDB7DEB7AD970FB6F894DEBF01
:1000E0000FBECDBF8DA7A4E2B0E0E4E2F0E08081D6
:1000F00084608C931CA61BA682C1A5E2B0E0E5E259
:10010000F0E080818D7F8C9380E090E0A0E8BFE3F9
:100110008FA398A7A9A7BAA76FA178A589A59AA523
:1001200020E030E04AE755E40E941B1BDC01CB01D4
:100130008BA39CA3ADA3BEA36BA17CA18DA19EA10B
:1001400020E030E040E85FE30E94751C88232CF437
:1001500081E090E09AA389A33FC06BA17CA18DA10F
:100160009EA120E03FEF4FE757E40E94151C1816B0
:100170004CF56FA178A589A59AA520E030E040E272
:1001800051E40E941B1BDC01CB01BC01CD010E948C
:100190004519DC01CB019AA389A30FC080E991E046
:1001A00098A38F8F8F8D98A10197F1F798A38F8FC8
:1001B00089A19AA101979AA389A389A19AA10097DD
:1001C00069F714C06BA17CA18DA19EA10E94451965
:1001D000DC01CB019AA389A389A19AA19E8F8D8F5F
:1001E0008D8D9E8D0197F1F79E8F8D8F8DA5882F18
:1001F00090E081709070882341F0A5E2B0E0E5E2E4
:10020000F0E0808184608C9307C0A5E2B0E0E5E275
:10021000F0E080818B7F8C9380E090E0A0E8BFE3EA
:10022000898F9A8FAB8FBC8F698D7A8D8B8D9C8DCA
:1002300020E030E04AE755E40E941B1BDC01CB01C3
:100240008D8B9E8BAF8BB88F6D897E898F89988DB2
:1002500020E030E040E85FE30E94751C88232CF426
:1002600081E090E09C8B8B8B3FC06D897E898F896C
:10027000988D20E03FEF4FE757E40E94151C1816B9
:100280004CF5698D7A8D8B8D9C8D20E030E040E2BD
:1002900051E40E941B1BDC01CB01BC01CD010E947B
:1002A0004519DC01CB019C8B8B8B0FC080E991E061
:1002B0009A8B898B89899A890197F1F79A8B898B17
:1002C0008B899C8901979C8B8B8B8B899C89009750
:1002D00069F714C06D897E898F89988D0E944519B0
:1002E000DC01CB019C8B8B8B8B899C89988B8F87B6
:1002F0008F8598890197F1F7988B8F87A5E2B0E0F9
:10030000E5E2F0E0808182608C9380E090E0A0E8FC
:10031000BFE38B879C87AD87BE876B857C858D858A
:100320009E8520E030E04AE755E40E941B1BDC017B
:10033000CB018F839887A987BA876F817885898554
:100340009A8520E030E040E85FE30E94751C882336
:100350002CF481E090E09E838D833FC06F8178858F
:1003600089859A8520E03FEF4FE757E40E94151CEE
:1003700018164CF56B857C858D859E8520E030E0D8
:1003800040E251E40E941B1BDC01CB01BC01CD010A
:100390000E944519DC01CB019E838D830FC080E94B
:1003A00091E09C838B838B819C810197F1F79C83E7
:1003B0008B838D819E8101979E838D838D819E810C
:1003C000009769F714C06F81788589859A850E94A6
:1003D0004519DC01CB019E838D838D819E819A839B
:1003E000898389819A810197F1F79A8389838DA501
:1003F00086958DA78BA59CA501969CA78BA78BA501
:100400009CA5883091050CF478CEAD960FB6F89483
:10041000DEBF0FBECDBFCF91DF910895DF93CF93A5
:1004200000D000D0CDB7DEB78B836C838B810E9468
:1004300081038A838C81882F90E09C012F5F3F4F3E
:1004400081E090E002C0880F991F2A95E2F7815061
:1004500089839A81898189238A838A81482F4F7071
:100460008A8182958F70882F90E090709C01220F76
:10047000331FC901880F991F880F991F820F931F7F
:10048000840F8A838A810F900F900F900F90CF91E5
:10049000DF910895DF93CF930F92CDB7DEB78983B5
:1004A000898167E00E940E020F90CF91DF9108953D
:1004B000DF93CF9300D000D000D0CDB7DEB78C83D0
:1004C0006D834E838C810E9481038B838E81882F64
:1004D00090E09C012F5F3F4F81E090E002C0880FC9
:1004E000991F2A95E2F781508A838D819AE0692FBE
:1004F0000E94A01E89838D819AE0692F0E94A01E10
:10050000892F8D838981882F90E082959295907FA5
:100510009827807F9827982F8D81892B8D839D81A7
:100520008A8189238D838A81982F90958B81892355
:100530008B839D818B81892B8D838C816D810E9422
:10054000B50326960FB6F894DEBF0FBECDBFCF9190
:10055000DF910895DF93CF9300D0CDB7DEB78983C5
:100560006A8389816A8147E00E9458020F900F9048
:10057000CF91DF910895DF93CF93CDB7DEB7619729
:100580000FB6F894DEBF0FBECDBF198AA4E2B0E06B
:10059000E4E2F0E080818B7F8C93A5E2B0E0E5E2BD
:1005A000F0E080818D7F8C93188A1F869AC0E3E2E9
:1005B000F0E08081882F90E084709070009761F067
:1005C00081E090E00F8402C0880F991F0A94E2F73F
:1005D000982F8989892B898BA5E2B0E0E5E2F0E0CC
:1005E000808182608C9380E090E0A0E8BFE38B87FD
:1005F0009C87AD87BE876B857C858D859E8520E039
:1006000030E04AE755E40E941B1BDC01CB018F83DD
:100610009887A987BA876F81788589859A8520E030
:1006200030E040E85FE30E94751C88232CF481E0F1
:1006300090E09E838D833FC06F81788589859A8500
:1006400020E03FEF4FE757E40E94151C18164CF5C9
:100650006B857C858D859E8520E030E040E251E40D
:100660000E941B1BDC01CB01BC01CD010E9445197E
:10067000DC01CB019E838D830FC080E991E09C83D8
:100680008B838B819C810197F1F79C838B838D8178
:100690009E8101979E838D838D819E81009769F74E
:1006A00014C06F81788589859A850E944519DC017F
:1006B000CB019E838D838D819E819A8389838981DD
:1006C0009A810197F1F79A838983A5E2B0E0E5E288
:1006D000F0E080818D7F8C938F8598890196988B2F
:1006E0008F878F859889883091050CF460CF898930
:1006F00061960FB6F894DEBF0FBECDBFCF91DF91EC
:100700000895DF93CF9300D00F92CDB7DEB78B83E0
:1007100081E88A838B81882F90E0880F991F982F1A
:100720008A81892B8A83A5E2B0E0E5E2F0E080814E
:100730008D7F8C93A5E2B0E0E5E2F0E080818160FE
:100740008C938A810E9468000E94BB028983A5E283
:10075000B0E0E5E2F0E080818E7F8C9389810F909C
:100760000F900F90CF91DF910895DF93CF9300D03A
:100770000F92CDB7DEB78A836B838A81882F90E092
:10078000880F991F80688983A5E2B0E0E5E2F0E078
:1007900080818D7F8C93A5E2B0E0E5E2F0E080817E
:1007A00081608C9389810E9468008B810E9468001F
:1007B000A5E2B0E0E5E2F0E080818E7F8C930F90BF
:1007C0000F900F90CF91DF910895DF93CF9300D0DA
:1007D000CDB7DEB78A8380E00E9481038983898157
:1007E0008F7789838A81882F90E09695982F882724
:1007F00097958795982F8981892B898380E06981D6
:100800000E94B5030F900F90CF91DF910895DF9371
:10081000CF93CDB7DEB780E066E00E940E02CF91A5
:10082000DF910895DF93CF93CDB7DEB781E00E94CB
:100830004A02CF91DF910895DF93CF9300D0CDB7D7
:10084000DEB782E00E9481038A838A818823DCF4F8
:100850008A81882F90E0807290709C013595279551
:100860003595279535952795359527953595279570
:10087000C901880F991F820F931F880F991F880F36
:10088000991F898318C08A81882F90E080739070A7
:100890009595879595958795959587959595879540
:1008A0009C01220F331FC901880F991F880F991FC0
:1008B000820F931F89838A81982F9F708981890F66
:1008C0008A838A810F900F90CF91DF910895DF93F3
:1008D000CF93CDB7DEB783E065E00E940E02CF91E3
:1008E000DF910895DF93CF93CDB7DEB784E064E066
:1008F0000E940E02CF91DF910895DF93CF93CDB781
:10090000DEB785E062E00E940E02CF91DF9108958C
:10091000DF93CF93CDB7DEB786E00E944A02882FDF
:1009200090E08053984FCF91DF910895DF93CF935C
:100930000F92CDB7DEB7898380E0698146E00E94DF
:1009400058020F90CF91DF910895DF93CF930F92CC
:10095000CDB7DEB7898381E0698146E00E94580205
:100960000F90CF91DF910895DF93CF930F92CDB782
:10097000DEB7898382E060E00E94B50382E069818E
:1009800045E00E9458020F90CF91DF910895DF93C8
:10099000CF930F92CDB7DEB7898383E0698145E0BD
:1009A0000E9458020F90CF91DF910895DF93CF936B
:1009B0000F92CDB7DEB7898384E0698144E00E945D
:1009C00058020F90CF91DF910895DF93CF930F924C
:1009D000CDB7DEB7898385E0698142E00E94580285
:1009E0000F90CF91DF910895DF93CF9300D0CDB7D3
:1009F000DEB79A83898389819A81805D97409A8343
:100A00008983998186E0692F0E94AA020F900F9036
:100A1000CF91DF910895DF93CF9300D0CDB7DEB7AC
:100A20008A830E941204982F8A81890F8983898181
:100A30008C3318F089818C53898389810E94A504A5
:100A40000F900F90CF91DF910895DF93CF9300D057
:100A5000CDB7DEB78A830E941C04982F8A81890F44
:100A600089838981883118F08981885189838981B6
:100A70000E94B4040F900F90CF91DF910895DF93FF
:100A8000CF93CDB7DEB7AAE2B0E0EAE2F0E0808132
:100A900088638C93CF91DF910895DF93CF9300D03B
:100AA00000D0CDB7DEB78C831B821A822FC0ABE299
:100AB000B0E0EBE2F0E080818F7D8C938C81882F19
:100AC00090E00A8002C0880F991F0A94E2F7898398
:100AD0008981882344F4ABE2B0E0EBE2F0E080816E
:100AE00088608C9307C0ABE2B0E0EBE2F0E080817D
:100AF000877F8C93ABE2B0E0EBE2F0E08081806234
:100B00008C938A819B8101969B838A838A819B81B6
:100B10008830910564F20F900F900F900F90CF9155
:100B2000DF910895DF93CF9300D00F92CDB7DEB75A
:100B300089836A834B83ABE2B0E0EBE2F0E0808133
:100B40008F7E8C938B810E944D058A810E944D057A
:100B500089810E944D05ABE2B0E0EBE2F0E08081DC
:100B600080618C930F900F900F90CF91DF9108953B
:100B7000DF93CF93CDB7DEB70E94EF1880E091E00E
:100B800090932801809327018EE091E090932601B5
:100B900080932501CF91DF910895DF93CF93CDB757
:100BA000DEB7AAE2B0E0EAE2F0E080818F7B8C93CE
:100BB000AAE2B0E0EAE2F0E080818F778C93ABE2CA
:100BC000B0E0EBE2F0E0808180648C93ABE2B0E0D7
:100BD000EBE2F0E0808180688C93A8E6B0E0E8E684
:100BE000F0E0808184608C93ADE6B0E0EDE6F0E06B
:100BF000808180648C93ADE6B0E0EDE6F0E080812A
:100C000080688C937894CF91DF910895DF93CF9390
:100C1000CDB7DEB7EC970FB6F894DEBF0FBECDBFF1
:100C20009AAF89AF6BAFE9ADFAAD8081282F30E084
:100C30008BAD882F90E0A90102C0559547958A9504
:100C4000E2F7CA0181709070009709F0DFC180E07F
:100C500090E0A0E2B1E48DAB9EABAFABB8AF6DA9B5
:100C60007EA98FA998AD20E030E04AE755E40E94C4
:100C70001B1BDC01CB0189AB9AABABABBCAB69A94D
:100C80007AA98BA99CA920E030E040E85FE30E94AC
:100C9000751C88232CF481E090E098AB8FA73FC0AF
:100CA00069A97AA98BA99CA920E03FEF4FE757E4F7
:100CB0000E94151C18164CF56DA97EA98FA998AD38
:100CC00020E030E040E251E40E941B1BDC01CB013C
:100CD000BC01CD010E944519DC01CB0198AB8FA767
:100CE0000FC080E991E09EA78DA78DA59EA50197D5
:100CF000F1F79EA78DA78FA598A9019798AB8FA70D
:100D00008FA598A9009769F714C069A97AA98BA93A
:100D10009CA90E944519DC01CB0198AB8FA78FA538
:100D200098A99CA78BA78BA59CA50197F1F79CA7D9
:100D30008BA780E090E0A0E2B1E48FA398A7A9A7D9
:100D4000BAA76FA178A589A59AA520E030E04AE767
:100D500055E40E941B1BDC01CB018BA39CA3ADA31C
:100D6000BEA36BA17CA18DA19EA120E030E040E854
:100D70005FE30E94751C88232CF481E090E09AA325
:100D800089A33FC06BA17CA18DA19EA120E03FEF74
:100D90004FE757E40E94151C18164CF56FA178A573
:100DA00089A59AA520E030E040E251E40E941B1B97
:100DB000DC01CB01BC01CD010E944519DC01CB0156
:100DC0009AA389A30FC080E991E098A38F8F8F8D9C
:100DD00098A10197F1F798A38F8F89A19AA1019704
:100DE0009AA389A389A19AA1009769F714C06BA15E
:100DF0007CA18DA19EA10E944519DC01CB019AA383
:100E000089A389A19AA19E8F8D8F8D8D9E8D01972B
:100E1000F1F79E8F8D8FE9ADFAAD8081282F30E0FC
:100E20008BAD882F90E0A90102C0559547958A9512
:100E3000E2F7CA0181709070882309F4E7C080E06E
:100E400090E0A0E2B1E4898F9A8FAB8FBC8F698D5F
:100E50007A8D8B8D9C8D20E030E04AE755E40E942E
:100E60001B1BDC01CB018D8B9E8BAF8BB88F6D89EB
:100E70007E898F89988D20E030E040E85FE30E9412
:100E8000751C88232CF481E090E09C8B8B8B3FC0F9
:100E90006D897E898F89988D20E03FEF4FE757E479
:100EA0000E94151C18164CF5698D7A8D8B8D9C8DC2
:100EB00020E030E040E251E40E941B1BDC01CB014A
:100EC000BC01CD010E944519DC01CB019C8B8B8BB1
:100ED0000FC080E991E09A8B898B89899A89019763
:100EE000F1F79A8B898B8B899C8901979C8B8B8BD3
:100EF0008B899C89009769F714C06D897E898F89D9
:100F0000988D0E944519DC01CB019C8B8B8B8B89C2
:100F10009C89988B8F878F8598890197F1F7988B9B
:100F20008F8780E090E0A0E2B1E48B879C87AD875B
:100F3000BE876B857C858D859E8520E030E04AE705
:100F400055E40E941B1BDC01CB018F839887A98786
:100F5000BA876F81788589859A8520E030E040E8FE
:100F60005FE30E94751C88232CF481E090E09E834F
:100F70008D833FC06F81788589859A8520E03FEF1A
:100F80004FE757E40E94151C18164CF56B857C85BD
:100F90008D859E8520E030E040E251E40E941B1BDD
:100FA000DC01CB01BC01CD010E944519DC01CB0164
:100FB0009E838D830FC080E991E09C838B838B811E
:100FC0009C810197F1F79C838B838D819E81019792
:100FD0009E838D838D819E81009769F714C06F81F8
:100FE000788589859A850E944519DC01CB019E830D
:100FF0008D838D819E819A83898389819A810197CE
:10100000F1F79A83898351E05CAF01C01CAE8CADCF
:10101000EC960FB6F894DEBF0FBECDBFCF91DF9137
:101020000895DF93CF930F92CDB7DEB719828091E9
:101030002401882379F4E9E2F0E08081882F90E0B0
:1010400080749070009731F481E08093240181E0F6
:10105000898334C080912401813071F4E9E2F0E0A9
:101060008081882F90E080749070009729F482E04E
:1010700080932401198222C080912401823071F46E
:10108000E9E2F0E08081882F90E080749070009712
:1010900029F083E080932401198210C080912401FB
:1010A000833061F4E9E2F0E08081882F90E0807481
:1010B0009070009719F010922401198289810F9085
:1010C000CF91DF9108951F920F920FB60F921124C6
:1010D0002F933F934F935F936F937F938F939F9340
:1010E000AF93BF93EF93FF93DF93CF93CDB7DEB76B
:1010F0000E941108882359F081E00E940B05A8E2A4
:10110000B0E0E8E2F0E0808180628C9307C0A8E262
:10111000B0E0E8E2F0E080818F7D8C93CF91DF91A9
:10112000FF91EF91BF91AF919F918F917F916F91BF
:101130005F914F913F912F910F900FBE0F901F9095
:101140001895DF93CF93CDB7DEB7A7E2B0E0E7E223
:10115000F0E0808180628C93A8E2B0E0E8E2F0E009
:10116000808180628C930E943F050E945300CF9142
:10117000DF910895DF93CF9300D000D0CDB7DEB7D5
:101180008B836C838C818A8319828B81893110F0E7
:1011900081E089838981882351F08C81882F90E0B8
:1011A000019628E130E0B9010E94AC1E8A838A8151
:1011B000882319F48CE08C8306C08A818D3018F066
:1011C0008A818C508A838A810F900F900F900F90A4
:1011D000CF91DF910895DF93CF9300D000D00F928D
:1011E000CDB7DEB789836A834B8399818A8198174B
:1011F00048F099818B81981728F481E090E09D83D5
:101200008C8302C01D821C828C819D810F900F9067
:101210000F900F900F90CF91DF910895DF93CF93B0
:10122000CDB7DEB727970FB6F894DEBF0FBECDBFA0
:101230001D821C8280E48B830E9412048A830E9498
:101240001C04982F8A81692F0E94BA08898389819A
:10125000282F30E03F832E838E819F818630910539
:1012600009F460C02E813F81273031050CF58E8155
:101270009F818330910509F449C02E813F8124303C
:1012800031055CF48E819F8181309105B9F12E8109
:101290003F8122303105B1F160C08E819F81843061
:1012A0009105C1F12E813F8125303105B9F155C03D
:1012B0008E819F818930910509F440C02E813F8144
:1012C0002A3031055CF48E819F818730910571F160
:1012D0002E813F812830310569F13FC08E819F8189
:1012E0008B30910599F12E813F812B30310554F1DE
:1012F0008E819F818C30910569F12FC08C81816036
:101300008C832BC08C8180628C8327C08C8182600F
:101310008C8323C08C8180648C831FC08D8181600D
:101320008D831BC08D8180628D8317C08D8182600B
:101330008D8313C08D8180648D830FC08D81846007
:101340008D830BC08D8180688D8307C08D818860FF
:101350008D8303C08C8180618C838A8160E045E04D
:101360000E94EB08009721F08D8180618D8390C0F1
:101370008A8165E04AE00E94EB08009739F08B8192
:1013800082608B838C8180688C8382C08A816AE0D2
:101390004FE00E94EB08009739F08B8181608B83CE
:1013A0008C8180688C8374C08A816FE044E10E94E4
:1013B000EB08009721F08C8188688C8369C08A8152
:1013C00064E149E10E94EB08009739F08B8180626B
:1013D0008B838C8180688C835BC08A8169E14EE15C
:1013E0000E94EB08009739F08B8182618B838C819E
:1013F00084608C834DC08A816EE143E20E94EB08D9
:10140000009721F08B8180618B8342C08A8163E2E7
:1014100048E20E94EB08009739F08B8182618B8350
:101420008C8180688C8334C08A8168E24DE20E949E
:10143000EB08009739F08B8180628B838C8184600C
:101440008C8326C08A816DE242E30E94EB080097FC
:1014500021F08C818C608C831BC08A8162E347E31E
:101460000E94EB08009739F08B8181608B838C811F
:1014700084608C830DC08A8167E34CE30E94EB0893
:10148000009731F08B8182608B838C8184608C83A8
:101490008D816C814B810E94920527960FB6F8943E
:1014A000DEBF0FBECDBFCF91DF9108950F931F9385
:1014B000DF93CF93CDB7DEB7C652D1400FB6F894C5
:1014C000DEBF0FBECDBF80E060E040E40E94920529
:1014D000FE01ED5DFE4F80E090E0A8ECB2E4808379
:1014E0009183A283B3838E01015E1E4FFE01ED5DE9
:1014F000FE4F608171818281938120E030E04AE774
:1015000055E40E941B1BDC01CB01F8018083918311
:10151000A283B383FE01E15EFE4F6081718182810F
:10152000938120E030E040E85FE30E94751C88234F
:1015300044F4FE01E35EFE4F81E090E091838083FE
:1015400064C0FE01E15EFE4F608171818281938102
:1015500020E03FEF4FE757E40E94151C18160CF0EF
:1015600043C0FE01ED5DFE4F6081718182819381F8
:1015700020E030E040E251E40E941B1BDC01CB0183
:101580008E01035E1E4FBC01CD010E944519DC0196
:10159000CB01F801918380831FC0FE01E55EFE4F01
:1015A00080E991E091838083FE01E55EFE4F8081BA
:1015B00091810197F1F7FE01E55EFE4F91838083F3
:1015C000DE01A35EBE4FFE01E35EFE4F808191818E
:1015D000019711969C938E93FE01E35EFE4F8081EE
:1015E00091810097D1F627C08E01035E1E4FFE0148
:1015F000E15EFE4F60817181828193810E94451975
:10160000DC01CB01F80191838083DE01A75EBE4F30
:10161000FE01E35EFE4F808191818D939C93FE01DC
:10162000E75EFE4F808191810197F1F7FE01E75E51
:10163000FE4F9183808380E060E042E00E9492054B
:10164000FE01EB5EFE4F80E090E0A8ECB2E4808308
:101650009183A283B3838E010F5E1E4FFE01EB5E6A
:10166000FE4F608171818281938120E030E04AE702
:1016700055E40E941B1BDC01CB01F80180839183A0
:10168000A283B383FE01EF5EFE4F60817181828190
:10169000938120E030E040E85FE30E94751C8823DE
:1016A00044F4FE01E15FFE4F81E090E0918380838E
:1016B00064C0FE01EF5EFE4F608171818281938183
:1016C00020E03FEF4FE757E40E94151C18160CF07E
:1016D00043C0FE01EB5EFE4F608171818281938188
:1016E00020E030E040E251E40E941B1BDC01CB0112
:1016F0008E01015F1E4FBC01CD010E944519DC0126
:10170000CB01F801918380831FC0FE01E35FFE4F90
:1017100080E991E091838083FE01E35FFE4F808149
:1017200091810197F1F7FE01E35FFE4F9183808382
:10173000DE01A15FBE4FFE01E15FFE4F808191811E
:10174000019711969C938E93FE01E15FFE4F80817D
:1017500091810097D1F627C08E01015F1E4FFE01D7
:10176000EF5EFE4F60817181828193810E944519F5
:10177000DC01CB01F80191838083DE01A55FBE4FC0
:10178000FE01E15FFE4F808191818D939C93FE016C
:10179000E55FFE4F808191810197F1F7FE01E55FE2
:1017A000FE4F9183808380E060E041E00E949205DB
:1017B000FE01E95FFE4F80E090E0A8ECB2E4808398
:1017C0009183A283B3838E010D5F1E4FFE01E95FFB
:1017D000FE4F608171818281938120E030E04AE791
:1017E00055E40E941B1BDC01CB01F801808391832F
:1017F000A283B383FE01ED5FFE4F60817181828120
:10180000938120E030E040E85FE30E94751C88236C
:1018100044F4FE01EF5FFE4F81E090E0918380830E
:1018200064C0FE01ED5FFE4F608171818281938112
:1018300020E03FEF4FE757E40E94151C18160CF00C
:1018400043C0FE01E95FFE4F608171818281938117
:1018500020E030E040E251E40E941B1BDC01CB01A0
:101860008E010F5F1E4FBC01CD010E944519DC01A6
:10187000CB01F801918380831FC0FE01E150FF4F2F
:1018800080E991E091838083FE01E150FF4F8081E8
:1018900091810197F1F7FE01E150FF4F9183808321
:1018A000DE01AF5FBE4FFE01EF5FFE4F8081918191
:1018B000019711969C938E93FE01EF5FFE4F8081FE
:1018C00091810097D1F627C08E010F5F1E4FFE0158
:1018D000ED5FFE4F60817181828193810E94451985
:1018E000DC01CB01F80191838083DE01A350BF4F5F
:1018F000FE01EF5FFE4F808191818D939C93FE01ED
:10190000E350FF4F808191810197F1F7FE01E35091
:10191000FF4F9183808380E068E040E00E94920561
:10192000FE01E750FF4F80E090E0A8ECB2E4808336
:101930009183A283B3838E010B501F4FFE01E750AA
:10194000FF4F608171818281938120E030E04AE71E
:1019500055E40E941B1BDC01CB01F80180839183BD
:10196000A283B383FE01EB50FF4F608171818281BE
:10197000938120E030E040E85FE30E94751C8823FB
:1019800044F4FE01ED50FF4F81E090E091838083AD
:1019900064C0FE01EB50FF4F6081718182819381B1
:1019A00020E03FEF4FE757E40E94151C18160CF09B
:1019B00043C0FE01E750FF4F6081718182819381B6
:1019C00020E030E040E251E40E941B1BDC01CB012F
:1019D0008E010D501F4FBC01CD010E944519DC0145
:1019E000CB01F801918380831FC0FE01EF50FF4FB0
:1019F00080E991E091838083FE01EF50FF4F808169
:101A000091810197F1F7FE01EF50FF4F91838083A1
:101A1000DE01AD50BF4FFE01ED50FF4F808191813F
:101A2000019711969C938E93FE01ED50FF4F80819C
:101A300091810097D1F627C08E010D501F4FFE01F6
:101A4000EB50FF4F60817181828193810E94451923
:101A5000DC01CB01F80191838083DE01A151BF4FEE
:101A6000FE01ED50FF4F808191818D939C93FE018B
:101A7000E151FF4F808191810197F1F7FE01E15122
:101A8000FF4F9183808380E060E040E20E949205F6
:101A9000FE01E551FF4F80E090E0A8ECB2E48083C6
:101AA0009183A283B3838E0109511F4FFE01E5513B
:101AB000FF4F608171818281938120E030E04AE7AD
:101AC00055E40E941B1BDC01CB01F801808391834C
:101AD000A283B383FE01E951FF4F6081718182814E
:101AE000938120E030E040E85FE30E94751C88238A
:101AF00044F4FE01EB51FF4F81E090E0918380833D
:101B000064C0FE01E951FF4F608171818281938140
:101B100020E03FEF4FE757E40E94151C18160CF029
:101B200043C0FE01E551FF4F608171818281938145
:101B300020E030E040E251E40E941B1BDC01CB01BD
:101B40008E010B511F4FBC01CD010E944519DC01D4
:101B5000CB01F801918380831FC0FE01ED51FF4F3F
:101B600080E991E091838083FE01ED51FF4F8081F8
:101B700091810197F1F7FE01ED51FF4F9183808331
:101B8000DE01AB51BF4FFE01EB51FF4F80819181D0
:101B9000019711969C938E93FE01EB51FF4F80812C
:101BA00091810097D1F627C08E010B511F4FFE0186
:101BB000E951FF4F60817181828193810E944519B3
:101BC000DC01CB01F80191838083DE01AF51BF4F6F
:101BD000FE01EB51FF4F808191818D939C93FE011B
:101BE000EF51FF4F808191810197F1F7FE01EF5195
:101BF000FF4F9183808380E064E040E00E94920583
:101C0000FE01E352FF4F80E090E0A8ECB2E4808355
:101C10009183A283B3838E0107521F4FFE01E352CB
:101C2000FF4F608171818281938120E030E04AE73B
:101C300055E40E941B1BDC01CB01F80180839183DA
:101C4000A283B383FE01E752FF4F608171818281DD
:101C5000938120E030E040E85FE30E94751C882318
:101C600044F4FE01E952FF4F81E090E091838083CC
:101C700064C0FE01E752FF4F6081718182819381D0
:101C800020E03FEF4FE757E40E94151C18160CF0B8
:101C900043C0FE01E352FF4F6081718182819381D5
:101CA00020E030E040E251E40E941B1BDC01CB014C
:101CB0008E0109521F4FBC01CD010E944519DC0164
:101CC000CB01F801918380831FC0FE01EB52FF4FCF
:101CD00080E991E091838083FE01EB52FF4F808188
:101CE00091810197F1F7FE01EB52FF4F91838083C1
:101CF000DE01A952BF4FFE01E952FF4F8081918161
:101D0000019711969C938E93FE01E952FF4F8081BB
:101D100091810097D1F627C08E0109521F4FFE0115
:101D2000E752FF4F60817181828193810E94451942
:101D3000DC01CB01F80191838083DE01AD52BF4FFE
:101D4000FE01E952FF4F808191818D939C93FE01AA
:101D5000ED52FF4F808191810197F1F7FE01ED5225
:101D6000FF4F9183808380E060E840E00E9492050D
:101D7000FE01E153FF4F80E090E0A8ECB2E48083E5
:101D80009183A283B3838E0105531F4FFE01E1535C
:101D9000FF4F608171818281938120E030E04AE7CA
:101DA00055E40E941B1BDC01CB01F8018083918369
:101DB000A283B383FE01E553FF4F6081718182816D
:101DC000938120E030E040E85FE30E94751C8823A7
:101DD00044F4FE01E753FF4F81E090E0918380835C
:101DE00064C0FE01E553FF4F608171818281938160
:101DF00020E03FEF4FE757E40E94151C18160CF047
:101E000043C0FE01E153FF4F608171818281938164
:101E100020E030E040E251E40E941B1BDC01CB01DA
:101E20008E0107531F4FBC01CD010E944519DC01F3
:101E3000CB01F801918380831FC0FE01E953FF4F5E
:101E400080E991E091838083FE01E953FF4F808117
:101E500091810197F1F7FE01E953FF4F9183808350
:101E6000DE01A753BF4FFE01E753FF4F80819181F1
:101E7000019711969C938E93FE01E753FF4F80814B
:101E800091810097D1F627C08E0107531F4FFE01A5
:101E9000E553FF4F60817181828193810E944519D2
:101EA000DC01CB01F80191838083DE01AB53BF4F8E
:101EB000FE01E753FF4F808191818D939C93FE013A
:101EC000EB53FF4F808191810197F1F7FE01EB53B6
:101ED000FF4F9183808380E060E040E10E949205A3
:101EE000FE01EF53FF4F80E090E0A8ECB2E4808366
:101EF0009183A283B3838E0103541F4FFE01EF53DE
:101F0000FF4F608171818281938120E030E04AE758
:101F100055E40E941B1BDC01CB01F80180839183F7
:101F2000A283B383FE01E354FF4F608171818281FC
:101F3000938120E030E040E85FE30E94751C882335
:101F400044F4FE01E554FF4F81E090E091838083EB
:101F500064C0FE01E354FF4F6081718182819381EF
:101F600020E03FEF4FE757E40E94151C18160CF0D5
:101F700043C0FE01EF53FF4F6081718182819381E5
:101F800020E030E040E251E40E941B1BDC01CB0169
:101F90008E0105541F4FBC01CD010E944519DC0183
:101FA000CB01F801918380831FC0FE01E754FF4FEE
:101FB00080E991E091838083FE01E754FF4F8081A7
:101FC00091810197F1F7FE01E754FF4F91838083E0
:101FD000DE01A554BF4FFE01E554FF4F8081918182
:101FE000019711969C938E93FE01E554FF4F8081DB
:101FF00091810097D1F627C08E0105541F4FFE0135
:10200000E354FF4F60817181828193810E94451961
:10201000DC01CB01F80191838083DE01A954BF4F1D
:10202000FE01E554FF4F808191818D939C93FE01C9
:10203000E954FF4F808191810197F1F7FE01E95446
:10204000FF4F9183808388E060E040E00E9492052A
:10205000FE01ED54FF4F80E090E0A8ECB2E48083F5
:102060009183A283B3838E0101551F4FFE01ED546E
:10207000FF4F608171818281938120E030E04AE7E7
:1020800055E40E941B1BDC01CB01F8018083918386
:10209000A283B383FE01E155FF4F6081718182818C
:1020A000938120E030E040E85FE30E94751C8823C4
:1020B00044F4FE01E355FF4F81E090E0918380837B
:1020C00064C0FE01E155FF4F60817181828193817F
:1020D00020E03FEF4FE757E40E94151C18160CF064
:1020E00043C0FE01ED54FF4F608171818281938175
:1020F00020E030E040E251E40E941B1BDC01CB01F8
:102100008E0103551F4FBC01CD010E944519DC0112
:10211000CB01F801918380831FC0FE01E555FF4F7D
:1021200080E991E091838083FE01E555FF4F808136
:1021300091810197F1F7FE01E555FF4F918380836F
:10214000DE01A355BF4FFE01E355FF4F8081918112
:10215000019711969C938E93FE01E355FF4F80816A
:1021600091810097D1F627C08E0103551F4FFE01C4
:10217000E155FF4F60817181828193810E944519F1
:10218000DC01CB01F80191838083DE01A755BF4FAD
:10219000FE01E355FF4F808191818D939C93FE0159
:1021A000E755FF4F808191810197F1F7FE01E755D7
:1021B000FF4F9183808380E060E240E00E949205BF
:1021C000FE01EB55FF4F80E090E0A8ECB2E4808385
:1021D0009183A283B3838E010F551F4FFE01EB55F0
:1021E000FF4F608171818281938120E030E04AE776
:1021F00055E40E941B1BDC01CB01F8018083918315
:10220000A283B383FE01EF55FF4F6081718182810C
:10221000938120E030E040E85FE30E94751C882352
:1022200044F4FE01E156FF4F81E090E0918380830A
:1022300064C0FE01EF55FF4F6081718182819381FF
:1022400020E03FEF4FE757E40E94151C18160CF0F2
:1022500043C0FE01EB55FF4F608171818281938104
:1022600020E030E040E251E40E941B1BDC01CB0186
:102270008E0101561F4FBC01CD010E944519DC01A2
:10228000CB01F801918380831FC0FE01E356FF4F0D
:1022900080E991E091838083FE01E356FF4F8081C6
:1022A00091810197F1F7FE01E356FF4F91838083FF
:1022B000DE01A156BF4FFE01E156FF4F80819181A3
:1022C000019711969C938E93FE01E156FF4F8081FA
:1022D00091810097D1F627C08E0101561F4FFE0154
:1022E000EF55FF4F60817181828193810E94451972
:1022F000DC01CB01F80191838083DE01A556BF4F3D
:10230000FE01E156FF4F808191818D939C93FE01E8
:10231000E556FF4F808191810197F1F7FE01E55667
:10232000FF4F9183808380E860E040E00E94920547
:10233000FE01E956FF4F80E090E0A8ECB2E4808314
:102340009183A283B3838E010D561F4FFE01E95680
:10235000FF4F608171818281938120E030E04AE704
:1023600055E40E941B1BDC01CB01F80180839183A3
:10237000A283B383FE01ED56FF4F6081718182819C
:10238000938120E030E040E85FE30E94751C8823E1
:1023900044F4FE01EF56FF4F81E090E0918380838B
:1023A00064C0FE01ED56FF4F60817181828193818F
:1023B00020E03FEF4FE757E40E94151C18160CF081
:1023C00043C0FE01E956FF4F608171818281938194
:1023D00020E030E040E251E40E941B1BDC01CB0115
:1023E0008E010F561F4FBC01CD010E944519DC0123
:1023F000CB01F801918380831FC0FE01E157FF4F9D
:1024000080E991E091838083FE01E157FF4F808155
:1024100091810197F1F7FE01E157FF4F918380838E
:10242000DE01AF56BF4FFE01EF56FF4F8081918115
:10243000019711969C938E93FE01EF56FF4F80817A
:1024400091810097D1F627C08E010F561F4FFE01D4
:10245000ED56FF4F60817181828193810E94451901
:10246000DC01CB01F80191838083DE01A357BF4FCC
:10247000FE01EF56FF4F808191818D939C93FE0169
:10248000E357FF4F808191810197F1F7FE01E357F8
:10249000FF4F9183808380E061E040E00E949205DD
:1024A000FE01E757FF4F80E090E0A8ECB2E48083A4
:1024B0009183A283B3838E010B571F4FFE01E75711
:1024C000FF4F608171818281938120E030E04AE793
:1024D00055E40E941B1BDC01CB01F8018083918332
:1024E000A283B383FE01EB57FF4F6081718182812C
:1024F000938120E030E040E85FE30E94751C882370
:1025000044F4FE01ED57FF4F81E090E0918380831A
:1025100064C0FE01EB57FF4F60817181828193811E
:1025200020E03FEF4FE757E40E94151C18160CF00F
:1025300043C0FE01E757FF4F608171818281938123
:1025400020E030E040E251E40E941B1BDC01CB01A3
:102550008E010D571F4FBC01CD010E944519DC01B2
:10256000CB01F801918380831FC0FE01EF57FF4F1D
:1025700080E991E091838083FE01EF57FF4F8081D6
:1025800091810197F1F7FE01EF57FF4F918380830F
:10259000DE01AD57BF4FFE01ED57FF4F80819181A6
:1025A000019711969C938E93FE01ED57FF4F80810A
:1025B00091810097D1F627C08E010D571F4FFE0164
:1025C000EB57FF4F60817181828193810E94451991
:1025D000DC01CB01F80191838083DE01A158BF4F5C
:1025E000FE01ED57FF4F808191818D939C93FE01F9
:1025F000E158FF4F808191810197F1F7FE01E15889
:10260000FF4F9183808380E062E040E00E9492056A
:10261000FE01E558FF4F80E090E0A8ECB2E4808333
:102620009183A283B3838E0109581F4FFE01E558A1
:10263000FF4F608171818281938120E030E04AE721
:1026400055E40E941B1BDC01CB01F80180839183C0
:10265000A283B383FE01E958FF4F608171818281BB
:10266000938120E030E040E85FE30E94751C8823FE
:1026700044F4FE01EB58FF4F81E090E091838083AA
:1026800064C0FE01E958FF4F6081718182819381AE
:1026900020E03FEF4FE757E40E94151C18160CF09E
:1026A00043C0FE01E558FF4F6081718182819381B3
:1026B00020E030E040E251E40E941B1BDC01CB0132
:1026C0008E010B581F4FBC01CD010E944519DC0142
:1026D000CB01F801918380831FC0FE01ED58FF4FAD
:1026E00080E991E091838083FE01ED58FF4F808166
:1026F00091810197F1F7FE01ED58FF4F918380839F
:10270000DE01AB58BF4FFE01EB58FF4F8081918136
:10271000019711969C938E93FE01EB58FF4F808199
:1027200091810097D1F627C08E010B581F4FFE01F3
:10273000E958FF4F60817181828193810E94451920
:10274000DC01CB01F80191838083DE01AF58BF4FDC
:10275000FE01EB58FF4F808191818D939C93FE0188
:10276000EF58FF4F808191810197F1F7FE01EF58FB
:10277000FF4F9183808380E060E440E00E949205F7
:10278000FE01E359FF4F80E090E0A8ECB2E48083C3
:102790009183A283B3838E0107591F4FFE01E35932
:1027A000FF4F608171818281938120E030E04AE7B0
:1027B00055E40E941B1BDC01CB01F801808391834F
:1027C000A283B383FE01E759FF4F6081718182814B
:1027D000938120E030E040E85FE30E94751C88238D
:1027E00044F4FE01E959FF4F81E090E0918380833A
:1027F00064C0FE01E759FF4F60817181828193813E
:1028000020E03FEF4FE757E40E94151C18160CF02C
:1028100043C0FE01E359FF4F608171818281938142
:1028200020E030E040E251E40E941B1BDC01CB01C0
:102830008E0109591F4FBC01CD010E944519DC01D1
:10284000CB01F801918380831FC0FE01EB59FF4F3C
:1028500080E991E091838083FE01EB59FF4F8081F5
:1028600091810197F1F7FE01EB59FF4F918380832E
:10287000DE01A959BF4FFE01E959FF4F80819181C7
:10288000019711969C938E93FE01E959FF4F808129
:1028900091810097D1F627C08E0109591F4FFE0183
:1028A000E759FF4F60817181828193810E944519B0
:1028B000DC01CB01F80191838083DE01AD59BF4F6C
:1028C000FE01E959FF4F808191818D939C93FE0118
:1028D000ED59FF4F808191810197F1F7FE01ED598C
:1028E000FF4F9183808380E060E140E00E94920589
:1028F000FE01E15AFF4F80E090E0A8ECB2E4808353
:102900009183A283B3838E01055A1F4FFE01E15AC2
:10291000FF4F608171818281938120E030E04AE73E
:1029200055E40E941B1BDC01CB01F80180839183DD
:10293000A283B383FE01E55AFF4F608171818281DA
:10294000938120E030E040E85FE30E94751C88231B
:1029500044F4FE01E75AFF4F81E090E091838083C9
:1029600064C0FE01E55AFF4F6081718182819381CD
:1029700020E03FEF4FE757E40E94151C18160CF0BB
:1029800043C0FE01E15AFF4F6081718182819381D2
:1029900020E030E040E251E40E941B1BDC01CB014F
:1029A0008E01075A1F4FBC01CD010E944519DC0161
:1029B000CB01F801918380831FC0FE01E95AFF4FCC
:1029C00080E991E091838083FE01E95AFF4F808185
:1029D00091810197F1F7FE01E95AFF4F91838083BE
:1029E000DE01A75ABF4FFE01E75AFF4F8081918158
:1029F000019711969C938E93FE01E75AFF4F8081B9
:102A000091810097D1F627C08E01075A1F4FFE0112
:102A1000E55AFF4F60817181828193810E9445193F
:102A2000DC01CB01F80191838083DE01AB5ABF4FFB
:102A3000FE01E75AFF4F808191818D939C93FE01A7
:102A4000EB5AFF4F808191810197F1F7FE01EB5A1C
:102A5000FF4F9183808380E260E040E00E94920516
:102A6000FE01EF5AFF4F80E090E0A8ECB2E48083D3
:102A70009183A283B3838E01035B1F4FFE01EF5A44
:102A8000FF4F608171818281938120E030E04AE7CD
:102A900055E40E941B1BDC01CB01F801808391836C
:102AA000A283B383FE01E35BFF4F6081718182816A
:102AB000938120E030E040E85FE30E94751C8823AA
:102AC00044F4FE01E55BFF4F81E090E09183808359
:102AD00064C0FE01E35BFF4F60817181828193815D
:102AE00020E03FEF4FE757E40E94151C18160CF04A
:102AF00043C0FE01EF5AFF4F608171818281938153
:102B000020E030E040E251E40E941B1BDC01CB01DD
:102B10008E01055B1F4FBC01CD010E944519DC01F0
:102B2000CB01F801918380831FC0FE01E75BFF4F5B
:102B300080E991E091838083FE01E75BFF4F808114
:102B400091810197F1F7FE01E75BFF4F918380834D
:102B5000DE01A55BBF4FFE01E55BFF4F80819181E8
:102B6000019711969C938E93FE01E55BFF4F808148
:102B700091810097D1F627C08E01055B1F4FFE01A2
:102B8000E35BFF4F60817181828193810E944519CF
:102B9000DC01CB01F80191838083DE01A95BBF4F8B
:102BA000FE01E55BFF4F808191818D939C93FE0137
:102BB000E95BFF4F808191810197F1F7FE01E95BAD
:102BC000FF4F9183808380E460E040E00E949205A3
:102BD000FE01ED5BFF4F80E090E0A8ECB2E4808363
:102BE0009183A283B3838E01015C1F4FFE01ED5BD5
:102BF000FF4F608171818281938120E030E04AE75C
:102C000055E40E941B1BDC01CB01F80180839183FA
:102C1000A283B383FE01FF966081718182819381DB
:102C200020E030E040E85FE30E94751C88232CF42C
:102C300081E090E09EAF8DAF46C0FE01FF966081BF
:102C400071818281938120E03FEF4FE757E40E943A
:102C5000151C181664F5FE01ED5BFF4F6081718154
:102C60008281938120E030E040E251E40E941B1B0E
:102C7000DC01CB01BC01CD010E944519DC01CB0177
:102C80009EAF8DAF0FC080E991E09CAF8BAF8BAD55
:102C90009CAD0197F1F79CAF8BAF8DAD9EAD0197C9
:102CA0009EAF8DAF8DAD9EAD009769F716C0FE014A
:102CB000FF9660817181828193810E944519DC01B8
:102CC000CB019EAF8DAF8DAD9EAD9AAF89AF89AD73
:102CD0009AAD0197F1F79AAF89AF82E060E040E0EA
:102CE0000E94920580E090E0A8ECB2E48DAB9EAB30
:102CF000AFABB8AF6DA97EA98FA998AD20E030E049
:102D00004AE755E40E941B1BDC01CB0189AB9AAB5F
:102D1000ABABBCAB69A97AA98BA99CA920E030E038
:102D200040E85FE30E94751C88232CF481E090E06A
:102D300098AB8FA73FC069A97AA98BA99CA920E06D
:102D40003FEF4FE757E40E94151C18164CF56DA98C
:102D50007EA98FA998AD20E030E040E251E40E94C6
:102D60001B1BDC01CB01BC01CD010E944519DC011C
:102D7000CB0198AB8FA70FC080E991E09EA78DA7EC
:102D80008DA59EA50197F1F79EA78DA78FA598A960
:102D9000019798AB8FA78FA598A9009769F714C0E2
:102DA00069A97AA98BA99CA90E944519DC01CB01CC
:102DB00098AB8FA78FA598A99CA78BA78BA59CA53F
:102DC0000197F1F79CA78BA784E060E040E00E94A8
:102DD000920580E090E0A8ECB2E48FA398A7A9A7A1
:102DE000BAA76FA178A589A59AA520E030E04AE7A7
:102DF00055E40E941B1BDC01CB018BA39CA3ADA35C
:102E0000BEA36BA17CA18DA19EA120E030E040E893
:102E10005FE30E94751C88232CF481E090E09AA364
:102E200089A33FC06BA17CA18DA19EA120E03FEFB3
:102E30004FE757E40E94151C18164CF56FA178A5B2
:102E400089A59AA520E030E040E251E40E941B1BD6
:102E5000DC01CB01BC01CD010E944519DC01CB0195
:102E60009AA389A30FC080E991E098A38F8F8F8DDB
:102E700098A10197F1F798A38F8F89A19AA1019743
:102E80009AA389A389A19AA1009769F714C06BA19D
:102E90007CA18DA19EA10E944519DC01CB019AA3C2
:102EA00089A389A19AA19E8F8D8F8D8D9E8D01976B
:102EB000F1F79E8F8D8F81E060E040E00E949205E7
:102EC00080E090E0A8ECB2E4898F9A8FAB8FBC8F42
:102ED000698D7A8D8B8D9C8D20E030E04AE755E43A
:102EE0000E941B1BDC01CB018D8B9E8BAF8BB88F9F
:102EF0006D897E898F89988D20E030E040E85FE31E
:102F00000E94751C88232CF481E090E09C8B8B8BB5
:102F10003FC06D897E898F89988D20E03FEF4FE714
:102F200057E40E94151C18164CF5698D7A8D8B8D0F
:102F30009C8D20E030E040E251E40E941B1BDC014C
:102F4000CB01BC01CD010E944519DC01CB019C8B5A
:102F50008B8B0FC080E991E09A8B898B89899A8944
:102F60000197F1F79A8B898B8B899C8901979C8BB0
:102F70008B8B8B899C89009769F714C06D897E893A
:102F80008F89988D0E944519DC01CB019C8B8B8B1E
:102F90008B899C89988B8F878F8598890197F1F70A
:102FA000988B8F8780E160E040E00E94920580E08E
:102FB00090E0A8ECB2E48B879C87AD87BE876B85D9
:102FC0007C858D859E8520E030E04AE755E40E94AF
:102FD0001B1BDC01CB018F839887A987BA876F8180
:102FE000788589859A8520E030E040E85FE30E949B
:102FF000751C88232CF481E090E09E838D833FC074
:103000006F81788589859A8520E03FEF4FE757E407
:103010000E94151C18164CF56B857C858D859E8548
:1030200020E030E040E251E40E941B1BDC01CB01B8
:10303000BC01CD010E944519DC01CB019E838D832B
:103040000FC080E991E09C838B838B819C810197E9
:10305000F1F79C838B838D819E8101979E838D8365
:103060008D819E81009769F714C06F81788589856D
:103070009A850E944519DC01CB019E838D838D8149
:103080009E819A83898389819A810197F1F79A8336
:103090008983CA5DDE4F0FB6F894DEBF0FBECDBF89
:1030A000CF91DF911F910F910895DF93CF93CDB70B
:1030B000DEB72E970FB6F894DEBF0FBECDBF0E94CD
:1030C000560A8FE00E94B4048BE20E94A5048EE1B0
:1030D0000E9496040E940E0980E090E0AAEFB3E4FB
:1030E0008B879C87AD87BE876B857C858D859E850C
:1030F00020E030E04AE755E40E941B1BDC01CB01D5
:103100008F839887A987BA876F81788589859A8503
:1031100020E030E040E85FE30E94751C88232CF437
:1031200081E090E09E838D833FC06F8178858985A3
:103130009A8520E03FEF4FE757E40E94151C1816D0
:103140004CF56B857C858D859E8520E030E040E2E6
:1031500051E40E941B1BDC01CB01BC01CD010E948C
:103160004519DC01CB019E838D830FC080E991E07E
:103170009C838B838B819C810197F1F79C838B834C
:103180008D819E8101979E838D838D819E81009785
:1031900069F7A0CF6F81788589859A850E94451946
:1031A000DC01CB019E838D838D819E819A838983EF
:1031B00089819A810197F1F79A8389838BCFDF9375
:1031C000CF93CDB7DEB70E94A10880E00E94E5034F
:1031D0000E94551880E090E0CF91DF910895DF9331
:1031E000CF93CDB7DEB7E5ECF0E01082E4ECF0E091
:1031F00087E68083A0ECB0E0E0ECF0E080818D7F9A
:103200008C93E2ECF0E086E08083E1ECF0E088E192
:103210008083CF91DF910895DF93CF9300D00F92F9
:10322000CDB7DEB789837B836A8389818A3031F4A5
:103230002A813B818DE0B9010E940C19E0ECF0E09D
:103240008081882F90E0807290700097B9F3E6EC4F
:10325000F0E0898180830F900F900F90CF91DF91E4
:103260000895DF93CF9300D0CDB7DEB79A838983DB
:10327000E0ECF0E080818823DCF7E6ECF0E0808190
:103280000F900F90CF91DF910895EF92FF920F93DF
:103290001F937B018C0120E030E040E05FE40E945E
:1032A000451C88238CF0C801B70120E030E040E0E5
:1032B0005FE40E94BD1A0E94A51C9B01AC01205036
:1032C00030404040504806C0C801B7010E94A51CCC
:1032D0009B01AC01B901CA011F910F91FF90EF90C2
:1032E0000895A0E0B0E0E7E7F9E10C94D31EDC011B
:1032F0002B01FA019C91923008F439C1EB018881CD
:10330000823008F433C1943069F4843009F02FC15D
:1033100011969C9111978981981709F428C1ACE105
:10332000B1E025C1843009F421C18230A9F4923082
:1033300009F01DC19A01AD0188E0EA010990AE01D2
:10334000E90109929E018150C1F7E201898111963C
:103350009C918923818308C1923009F407C1129698
:103360002D903C901397EB018A819B811496AD9030
:10337000BD90CD90DC901797EC80FD800E811F8171
:103380009101281B390BB90137FF04C06627772745
:10339000621B730B603271050CF061C012161306CC
:1033A0006CF537014801062E04C0969487947794F3
:1033B00067940A94D2F721E030E040E050E004C086
:1033C000220F331F441F551F6A95D2F721503040FA
:1033D000404050402E213F214023512321153105EB
:1033E0004105510521F021E030E040E050E0790155
:1033F0008A01E628F728082919293CC0232BD1F196
:10340000260E371E35014601062E04C09694879479
:10341000779467940A94D2F721E030E040E050E0DE
:1034200004C0220F331F441F551F6A95D2F7215045
:103430003040404050402A213B214C215D21211544
:1034400031054105510521F021E030E040E050E038
:1034500059016A01A628B728C828D9280BC08215A7
:1034600093052CF01C01AA24BB24650103C0EE24A3
:10347000FF24870111969C91D20111968C91981787
:1034800009F445C0992339F0A80197012A193B098D
:103490004C095D0906C0A60195012E193F09400B94
:1034A000510B57FD08C01182338222822483358359
:1034B000468357831DC081E081833382228288271F
:1034C0009927DC01821B930BA40BB50B8483958396
:1034D000A683B7830DC0220F331F441F551F2483BB
:1034E00035834683578382819381019793838283B7
:1034F0002481358146815781DA01C9010197A109EB
:10350000B1098F5F9F4FAF4FBF4328F30BC091832B
:1035100033822282EA0CFB1C0C1D1D1DE482F58205
:103520000683178383E08083248135814681578118
:1035300057FF1AC0C901AA2797FDA095BA2F81701D
:103540009070A070B0705695479537952795822B4F
:10355000932BA42BB52B84839583A683B783828179
:103560009381019693838283DF0101C0D201CD0153
:10357000CDB7DEB7E2E10C94EF1EA0E2B0E0E3ECE1
:10358000FAE10C94DF1E69837A838B839C832D83FD
:103590003E834F835887E9E0EE2EF12CEC0EFD1EA2
:1035A000CE010196B7010E94CF1D8E010F5E1F4F05
:1035B000CE010596B8010E94CF1D8A8991E0892726
:1035C0008A8BC701B801AE01475E5F4F0E94711937
:1035D0000E94F91CA096E6E00C94FB1EA0E2B0E06D
:1035E000E4EFFAE10C94DF1E69837A838B839C837A
:1035F0002D833E834F835887F9E0EF2EF12CEC0E9C
:10360000FD1ECE010196B7010E94CF1D8E010F5EF7
:103610001F4FCE010596B8010E94CF1DC701B8010A
:10362000AE01475E5F4F0E9471190E94F91CA0967F
:10363000E6E00C94FB1EA0E2B0E0E1E2FBE10C94BA
:10364000D31E69837A838B839C832D833E834F8330
:103650005887CE010196BE01675F7F4F0E94CF1D44
:10366000CE010596BE016F5E7F4F0E94CF1D9985EA
:10367000923088F089898230C8F0943019F4823011
:1036800051F404C0843029F4923081F48CE191E04B
:10369000C6C0923049F420E09A858A89981321E0C7
:1036A0002A87CE010996BBC0823049F420E09A8572
:1036B0008A89981321E02A8BCE014196B0C02D84CF
:1036C0003E844F8458886D887E888F88988CEE243D
:1036D000FF248701AA24BB24650140E050E060E09C
:1036E00070E0E0E0F0E0C10181709070892BE9F0BA
:1036F000E60CF71C081D191D9A01AB012A0D3B1D94
:103700004C1D5D1D80E090E0A0E0B0E0E614F70401
:103710000805190520F481E090E0A0E0B0E0BA01CE
:10372000A901480F591F6A1F7B1FAA0CBB1CCC1C88
:10373000DD1C97FE08C081E090E0A0E0B0E0A82A80
:10374000B92ACA2ADB2A3196E032F10549F0660C23
:10375000771C881C991C5694479437942794C3CFA0
:10376000FA85EA892B893C898B859C85280F391F2E
:103770002E5F3F4F17C0CA0181709070892B61F096
:1037800016950795F794E79480E090E0A0E0B0E804
:10379000E82AF92A0A2B1B2B7695679557954795AA
:1037A0002F5F3F4F77FDE7CF0CC0440F551F661FBB
:1037B000771F17FD4160EE0CFF1C001F111F2150E9
:1037C0003040403090E0590790E0690790E4790775
:1037D00060F32B8F3C8FDB01CA018F779070A07054
:1037E000B07080349105A105B10561F447FD0AC0B0
:1037F000E114F1040105110529F0405C5F4F6F4FA2
:103800007F4F40781A8EFE1711F081E08A8F4D8F1E
:103810005E8F6F8F78A383E0898FCE0149960E94D7
:10382000F91CA096E2E10C94EF1EA8E1B0E0EBE1F8
:10383000FCE10C94DF1E69837A838B839C832D8348
:103840003E834F83588789E0E82EF12CEC0EFD1E55
:10385000CE010196B7010E94CF1D8E010F5E1F4F52
:10386000CE010596B8010E94CF1D8985823040F0B7
:103870008989823028F0C701B8010E94471E01C023
:103880008FEF6896E6E00C94FB1EA8E1B0E0EBE455
:10389000FCE10C94DF1E69837A838B839C832D83E8
:1038A0003E834F83588789E0E82EF12CEC0EFD1EF5
:1038B000CE010196B7010E94CF1D8E010F5E1F4FF2
:1038C000CE010596B8010E94CF1D8985823040F057
:1038D0008989823028F0C701B8010E94471E01C0C3
:1038E0008FEF6896E6E00C94FB1EA8E1B0E0EBE7F2
:1038F000FCE10C94DF1E69837A838B839C832D8388
:103900003E834F83588789E0E82EF12CEC0EFD1E94
:10391000CE010196B7010E94CF1D8E010F5E1F4F91
:10392000CE010596B8010E94CF1D8985823040F0F6
:103930008989823028F0C701B8010E94471E01C062
:1039400081E06896E6E00C94FB1EACE0B0E0EBEAA8
:10395000FCE10C94E31E69837A838B839C83CE0104
:103960000196BE016B5F7F4F0E94CF1D8D8182301B
:1039700061F1823050F1843021F48E81882351F13D
:103980002EC02F81388537FD20C06E812F31310543
:103990001CF06623F9F023C08EE190E0821B930BAC
:1039A00029853A854B855C8504C0569547953795A2
:1039B00027958A95D2F76623B1F0509540953095BA
:1039C00021953F4F4F4F5F4F0EC020E030E040E069
:1039D00050E009C02FEF3FEF4FEF5FE704C020E05A
:1039E00030E040E050E8B901CA012C96E2E00C94C6
:1039F000FF1EDF92EF92FF920F931F93FC01E48072
:103A0000F58006811781D1808081823058F480E072
:103A100090E0A0E1B0E0E82AF92A0A2B1B2BEFEF97
:103A2000F0E0A6C0843009F49EC0823019F4E0E0D2
:103A3000F0E09BC0E114F1040105110519F4E0E088
:103A4000F0E096C0628173819FEF623879070CF0D5
:103A50005BC022E83FEF261B370B2A3131052CF0E3
:103A600020E030E040E050E02AC0B801A701022E7B
:103A700004C076956795579547950A94D2F781E0EB
:103A800090E0A0E0B0E004C0880F991FAA1FBB1F00
:103A90002A95D2F70197A109B1098E219F21A02370
:103AA000B1230097A105B10521F081E090E0A0E0ED
:103AB000B0E09A01AB01282B392B4A2B5B2BDA01A2
:103AC000C9018F779070A070B07080349105A10506
:103AD000B10539F427FF09C0205C3F4F4F4F5F4FBE
:103AE00004C0215C3F4F4F4F5F4FE0E0F0E02030DB
:103AF000A0E03A07A0E04A07A0E45A0710F0E1E08E
:103B0000F0E079018A0127C06038710564F5FB0196
:103B1000E158FF4FD801C7018F779070A070B07047
:103B200080349105A105B10539F4E7FE0DC080E4AC
:103B300090E0A0E0B0E004C08FE390E0A0E0B0E04F
:103B4000E80EF91E0A1F1B1F17FF05C016950795E3
:103B5000F794E794319687E016950795F794E794E4
:103B60008A95D1F705C0EFEFF0E0EE24FF2487013E
:103B70006E2F679566276795902F9F77D794DD24E2
:103B8000D7948E2F8695492F462B582F5D29B70144
:103B9000CA011F910F91FF90EF90DF900895FC01F3
:103BA000DB01408151812281622F6F7770E0221FFB
:103BB0002227221F9381892F880F822B282F30E004
:103BC000991F9927991F11969C93119721153105DB
:103BD000A9F5411551056105710511F482E037C061
:103BE00082E89FEF13969C938E9312979A01AB01F4
:103BF00067E0220F331F441F551F6A95D1F783E0FA
:103C00008C930DC0220F331F441F551F12968D91A8
:103C10009C911397019713969C938E931297203043
:103C200080E0380780E0480780E4580758F314968E
:103C30002D933D934D935C93179708952F3F310536
:103C400079F4411551056105710519F484E08C93EF
:103C5000089564FF03C081E08C9312C01C9210C0D1
:103C60002F57304013963C932E93129783E08C93FA
:103C700087E0440F551F661F771F8A95D1F7706440
:103C800014964D935D936D937C93179708951F93AE
:103C9000DC01FB019C91923008F447C080818230A6
:103CA00008F443C0943051F411961C91843099F576
:103CB0008181682F70E0611B71093FC0843021F061
:103CC000923031F48230B9F18181882389F12DC09D
:103CD00011961C9111978230F1F081811817D9F457
:103CE00012962D913C9113978281938182179307AD
:103CF00094F028173907BCF014968D919D910D9082
:103D0000BC91A02D24813581468157812817390720
:103D10004A075B0718F4112341F00AC08217930782
:103D2000A407B50740F4112319F061E070E005C065
:103D30006FEF7FEF02C060E070E0CB011F9108954C
:103D4000991B79E004C0991F961708F0961B881FED
:103D50007A95C9F78095089597FB092E07260AD012
:103D600077FD04D00CD006D000201AF47095619530
:103D70007F4F0895F6F7909581959F4F0895AA1B60
:103D8000BB1B51E107C0AA1FBB1FA617B70710F046
:103D9000A61BB70B881F991F5A95A9F78095909578
:103DA000BC01CD0108952F923F924F925F926F9286
:103DB0007F928F929F92AF92BF92CF92DF92EF92BB
:103DC000FF920F931F93CF93DF93CDB7DEB7CA1B3C
:103DD000DB0B0FB6F894DEBF0FBECDBF09942A8867
:103DE000398848885F846E847D848C849B84AA840F
:103DF000B984C884DF80EE80FD800C811B81AA819C
:103E0000B981CE0FD11D0FB6F894DEBF0FBECDBF66
:083E1000ED010895F894FFCFC5
:103E180000000002000000000C1900000000000073
:103E2800000100000000000031190000000000003F
:043E38000000000086
:00000001FF
