:100000000C9434000C9451000C9451000C94510049
:100010000C9451000C9451000C9451000C9451001C
:100020000C9451000C9451000C9451000C9451000C
:100030000C9451000C9451000C9451000C945100FC
:100040000C9451000C9451000C9451000C945100EC
:100050000C9451000C9451000C9451000C945100DC
:100060000C9451000C94510011241FBECFEFD8E026
:10007000DEBFCDBF11E0A0E0B1E0EAECF0E202C0EB
:1000800005900D92A03BB107D9F711E0A0EBB1E0CC
:1000900001C01D92A63BB107E1F70E940E060C9429
:1000A00063100C940000DF93CF93CDB7DEB7609759
:1000B0000FB6F894DEBF0FBECDBF888BA5E2B0E0CF
:1000C000E5E2F0E080818E7F8C931F86A3C0888953
:1000D000282F30E08F85882F90E0A90102C0559528
:1000E00047958A95E2F7CA0181709070882341F0A4
:1000F000A5E2B0E0E5E2F0E0808182608C9307C089
:10010000A5E2B0E0E5E2F0E080818D7F8C93A5E28E
:10011000B0E0E5E2F0E0808181608C9380E090E0E7
:10012000A0E8BFE38B879C87AD87BE876B857C8506
:100130008D859E8520E030E04AE755E40E94090A5B
:10014000DC01CB018F839887A987BA876F81788577
:1001500089859A8520E030E040E85FE30E94630BE8
:1001600088232CF481E090E09E838D833FC06F81D3
:10017000788589859A8520E03FEF4FE757E40E9414
:10018000030B18164CF56B857C858D859E8520E0CC
:1001900030E040E251E40E94090ADC01CB01BC01DD
:1001A000CD010E943308DC01CB019E838D830FC0FB
:1001B00080E991E09C838B838B819C810197F1F78F
:1001C0009C838B838D819E8101979E838D838D81FE
:1001D0009E81009769F714C06F81788589859A851B
:1001E0000E943308DC01CB019E838D838D819E812B
:1001F0009A83898389819A810197F1F79A83898308
:10020000A5E2B0E0E5E2F0E080818E7F8C938F85FF
:100210008F5F8F878F85883008F459CF60960FB62F
:10022000F894DEBF0FBECDBFCF91DF910895DF936D
:10023000CF93CDB7DEB7AD970FB6F894DEBF0FBE44
:10024000CDBF8DA7A4E2B0E0E4E2F0E0808182605F
:100250008C931CA61BA682C1A5E2B0E0E5E2F0E00B
:1002600080818E7F8C9380E090E0A0E8BFE38FA335
:1002700098A7A9A7BAA76FA178A589A59AA520E0F4
:1002800030E04AE755E40E94090ADC01CB018BA368
:100290009CA3ADA3BEA36BA17CA18DA19EA120E0D8
:1002A00030E040E85FE30E94630B88232CF481E098
:1002B00090E09AA389A33FC06BA17CA18DA19EA1D0
:1002C00020E03FEF4FE757E40E94030B18164CF570
:1002D0006FA178A589A59AA520E030E040E251E41D
:1002E0000E94090ADC01CB01BC01CD010E94330848
:1002F000DC01CB019AA389A30FC080E991E098A308
:100300008F8F8F8D98A10197F1F798A38F8F89A177
:100310009AA101979AA389A389A19AA1009769F745
:1003200014C06BA17CA18DA19EA10E943308DC01A9
:10033000CB019AA389A389A19AA19E8F8D8F8D8DC0
:100340009E8D0197F1F79E8F8D8F8DA5882F90E060
:1003500081709070882341F0A5E2B0E0E5E2F0E022
:10036000808182608C9307C0A5E2B0E0E5E2F0E016
:1003700080818D7F8C9380E090E0A0E8BFE3898F3F
:100380009A8FAB8FBC8F698D7A8D8B8D9C8D20E081
:1003900030E04AE755E40E94090ADC01CB018D8B6D
:1003A0009E8BAF8BB88F6D897E898F89988D20E069
:1003B00030E040E85FE30E94630B88232CF481E087
:1003C00090E09C8B8B8B3FC06D897E898F89988D47
:1003D00020E03FEF4FE757E40E94030B18164CF55F
:1003E000698D7A8D8B8D9C8D20E030E040E251E468
:1003F0000E94090ADC01CB01BC01CD010E94330837
:10040000DC01CB019C8B8B8B0FC080E991E09A8B38
:10041000898B89899A890197F1F79A8B898B8B89C6
:100420009C8901979C8B8B8B8B899C89009769F7A2
:1004300014C06D897E898F89988D0E943308DC01F4
:10044000CB019C8B8B8B8B899C89988B8F878F851D
:1004500098890197F1F7988B8F87A5E2B0E0E5E2E4
:10046000F0E0808181608C9380E090E0A0E8BFE3C1
:100470008B879C87AD87BE876B857C858D859E85A8
:1004800020E030E04AE755E40E94090ADC01CB0194
:100490008F839887A987BA876F81788589859A85A0
:1004A00020E030E040E85FE30E94630B88232CF4F7
:1004B00081E090E09E838D833FC06F817885898540
:1004C0009A8520E03FEF4FE757E40E94030B181690
:1004D0004CF56B857C858D859E8520E030E040E283
:1004E00051E40E94090ADC01CB01BC01CD010E944C
:1004F0003308DC01CB019E838D830FC080E991E03E
:100500009C838B838B819C810197F1F79C838B83E8
:100510008D819E8101979E838D838D819E81009721
:1005200069F714C06F81788589859A850E943308A0
:10053000DC01CB019E838D838D819E819A8389838B
:1005400089819A810197F1F79A8389838DA5869590
:100550008DA78BA59CA501969CA78BA78BA59CA579
:10056000883091050CF478CEAD960FB6F894DEBFC6
:100570000FBECDBFCF91DF910895DF93CF93CDB75D
:10058000DEB7A4E2B0E0E4E2F0E0808181608C9329
:10059000A4E2B0E0E4E2F0E080818C93CF91DF91BF
:1005A0000895DF93CF93CDB7DEB762970FB6F89477
:1005B000DEBF0FBECDBF1A8A198AA4E2B0E0E4E222
:1005C000F0E080818D7F8C93188A1F8697C0E3E2CC
:1005D000F0E080818270898B8989882F90E00F8478
:1005E00002C0880F991F0A94E2F7982F8A89892BF5
:1005F0008A8BA5E2B0E0E5E2F0E0808181608C9337
:1006000080E090E0A0E8BFE38B879C87AD87BE8742
:100610006B857C858D859E8520E030E04AE755E43A
:100620000E94090ADC01CB018F839887A987BA87CA
:100630006F81788589859A8520E030E040E85FE326
:100640000E94630B88232CF481E090E09E838D83CD
:100650003FC06F81788589859A8520E03FEF4FE71D
:1006600057E40E94030B18164CF56B857C858D852D
:100670009E8520E030E040E251E40E94090ADC015E
:10068000CB01BC01CD010E943308DC01CB019E836C
:100690008D830FC080E991E09C838B838B819C814B
:1006A0000197F1F79C838B838D819E8101979E83B7
:1006B0008D838D819E81009769F714C06F81788545
:1006C00089859A850E943308DC01CB019E838D8346
:1006D0008D819E819A83898389819A810197F1F71F
:1006E0009A838983A5E2B0E0E5E2F0E080818E7F25
:1006F0008C938F8598890196988B8F878F859889A1
:10070000883091050CF463CF8A8962960FB6F8940D
:10071000DEBF0FBECDBFCF91DF910895DF93CF93A2
:1007200000D000D0CDB7DEB78B836C838B810E9465
:100730003B048A838C81882F90E09C012F5F3F4F80
:1007400081E090E002C0880F991F2A95E2F781505E
:1007500089839A81898189238A838A81482F4F706E
:100760008A8182958F70882F90E090709C01220F73
:10077000331FC901880F991F880F991F820F931F7C
:10078000840F8A838A810F900F900F900F90CF91E2
:10079000DF910895DF93CF930F92CDB7DEB78983B2
:1007A000898167E00E948E030F90CF91DF910895B9
:1007B000DF93CF9300D000D000D0CDB7DEB78C83CD
:1007C0006D834E838C810E943B048B838E81882FA6
:1007D00090E09C012F5F3F4F81E090E002C0880FC6
:1007E000991F2A95E2F781508A838D819AE0692FBB
:1007F0000E948E0D89838D819AE0692F0E948E0D53
:10080000892F8D838981882F90E082959295907FA2
:100810009827807F9827982F8D81892B8D839D81A4
:100820008A8189238D838A81982F90958B81892352
:100830008B839D818B81892B8D838C816D810E941F
:100840006D0426960FB6F894DEBF0FBECDBFCF91D4
:10085000DF910895DF93CF9300D0CDB7DEB78983C2
:100860006A8389816A8147E00E94D8030F900F90C4
:10087000CF91DF910895DF93CF9300D00F92CDB742
:10088000DEB78B8381E88A838B81882F90E0880F85
:10089000991F982F8A81892B8A83A5E2B0E0E5E22F
:1008A000F0E080818E7F8C93A5E2B0E0E5E2F0E09D
:1008B00080818C938A810E9417010E94D1028983D2
:1008C000A5E2B0E0E5E2F0E080818C9389810F90B1
:1008D0000F900F90CF91DF910895DF93CF9300D0C9
:1008E0000F92CDB7DEB78A836B838A81882F90E021
:1008F000880F991F80688983A5E2B0E0E5E2F0E007
:1009000080818E7F8C93A5E2B0E0E5E2F0E080810B
:100910008C9389810E9417018B810E941701A5E2A7
:10092000B0E0E5E2F0E080818C930F900F900F90A3
:10093000CF91DF910895DF93CF93CDB7DEB780E0FD
:1009400066E00E948E03CF91DF910895DF93CF93ED
:10095000CDB7DEB781E00E94CA03CF91DF91089541
:10096000DF93CF9300D0CDB7DEB782E00E943B0487
:100970008A838A818823DCF48A81882F90E08072C0
:1009800090709C0135952795359527953595279538
:100990003595279535952795C901880F991F820FA1
:1009A000931F880F991F880F991F898318C08A8108
:1009B000882F90E080739070959587959595879591
:1009C00095958795959587959C01220F331FC901B1
:1009D000880F991F880F991F820F931F89838A811F
:1009E000982F9F708981890F8A838A810F900F9039
:1009F000CF91DF910895DF93CF93CDB7DEB783E03A
:100A000065E00E948E03CF91DF910895DF93CF932D
:100A1000CDB7DEB784E064E00E948E03CF91DF9112
:100A20000895DF93CF93CDB7DEB785E062E00E94F3
:100A30008E03CF91DF910895DF93CF93CDB7DEB7CB
:100A400086E00E94CA03882F90E08053984FCF9190
:100A5000DF910895DF93CF930F92CDB7DEB78983EF
:100A600080E0698146E00E94D8030F90CF91DF912A
:100A70000895DF93CF930F92CDB7DEB7898381E0DE
:100A8000698146E00E94D8030F90CF91DF910895CD
:100A9000DF93CF930F92CDB7DEB7898382E060E01A
:100AA0000E946D0482E0698145E00E94D8030F90A6
:100AB000CF91DF910895DF93CF930F92CDB7DEB73B
:100AC000898383E0698145E00E94D8030F90CF912C
:100AD000DF910895DF93CF930F92CDB7DEB789836F
:100AE00084E0698144E00E94D8030F90CF91DF91A8
:100AF0000895DF93CF930F92CDB7DEB7898385E05A
:100B0000698142E00E94D8030F90CF91DF91089550
:100B1000DF93CF9300D0CDB7DEB79A8389838981E5
:100B20009A81805D97409A838983998186E0692FB5
:100B30000E942A040F900F90CF91DF910895DF93C8
:100B4000CF93CDB7DEB7EAE2F0E088E38083CF91C0
:100B5000DF910895DF93CF9300D000D0CDB7DEB7FB
:100B60008C83ABE2B0E0EBE2F0E0808180618C93BB
:100B70001B821A822FC0ABE2B0E0EBE2F0E0808192
:100B80008F7D8C938C81882F90E00A8002C0880F23
:100B9000991F0A94E2F789838981882344F4ABE2A0
:100BA000B0E0EBE2F0E0808188608C9307C0ABE2BC
:100BB000B0E0EBE2F0E08081877F8C93ABE2B0E0C5
:100BC000EBE2F0E0808180628C938A819B810196C8
:100BD0009B838A838A819B818830910564F20F9080
:100BE0000F900F900F90CF91DF910895DF93CF93E7
:100BF00000D00F92CDB7DEB789836A834B838B8198
:100C00000E94AA058A810E94AA0589810E94AA05DC
:100C10000F900F900F90CF91DF9108950F931F9336
:100C2000DF93CF93CDB7DEB72E970FB6F894DEBF24
:100C30000FBECDBF0E949F050E94DD0788E191E0B5
:100C40009093B3018093B20186E291E09093B10159
:100C50008093B0010E94BD020E941C059C0100D03F
:100C600000D0EDB7FEB7319684E391E091838083A5
:100C7000338322830E94D10D0F900F900F900F901D
:100C80000E940605282F30E000D000D0EDB7FEB757
:100C900031968DE391E091838083338322830E9498
:100CA000D10D0F900F900F900F900E941105282FDB
:100CB00030E000D000D0EDB7FEB7319684E491E08B
:100CC00091838083338322830E94D10D0F900F90F4
:100CD0000F900F900E94B004282F30E000D000D079
:100CE000EDB7FEB731968BE491E091838083338337
:100CF00022830E94D10D0F900F900F900F900E94B1
:100D0000A604282F30E000D000D0EDB7FEB7319612
:100D100082E591E091838083338322830E94D10D09
:100D20000F900F900F900F900E949B04282F30E09F
:100D300000D000D0EDB7FEB7319689E591E0918300
:100D40008083338322830E94D10D0F900F900F90E8
:100D50000F9080E00E943B04282F30E000D000D0AC
:100D6000EDB7FEB7319680E691E0918380833383BF
:100D700022830E94D10D0F900F900F900F9081E071
:100D80000E943B04282F30E000D000D0EDB7FEB722
:100D9000319689E691E091838083338322830E9498
:100DA000D10D0F900F900F900F9082E00E943B04A6
:100DB000282F30E000D000D0EDB7FEB7319682E7A3
:100DC00091E091838083338322830E94D10D0F9021
:100DD0000F900F900F9083E00E943B04282F30E08B
:100DE00000D000D0EDB7FEB731968BE791E091834C
:100DF0008083338322830E94D10D0F900F900F9038
:100E00000F9084E00E943B04282F30E000D000D0F7
:100E1000EDB7FEB7319684E891E091838083338308
:100E200022830E94D10D0F900F900F900F9085E0BC
:100E30000E943B04282F30E000D000D0EDB7FEB771
:100E400031968DE891E091838083338322830E94E1
:100E5000D10D0F900F900F900F9086E00E943B04F1
:100E6000282F30E000D000D0EDB7FEB7319686E9EC
:100E700091E091838083338322830E94D10D0F9070
:100E80000F900F900F9087E00E943B04282F30E0D6
:100E900000D000D0EDB7FEB731968FE991E0918395
:100EA0008083338322830E94D10D0F900F900F9087
:100EB0000F9080E00E943B04082F80E00E943B04DA
:100EC000182F80E00E943B04982F802F612F492F1C
:100ED0000E94F60580E090E0AAE7B4E48B879C8747
:100EE000AD87BE876B857C858D859E8520E030E053
:100EF0004AE755E40E94090ADC01CB018F839887F9
:100F0000A987BA876F81788589859A8520E030E046
:100F100040E85FE30E94630B88232CF481E090E0BB
:100F20009E838D833FC06F81788589859A8520E077
:100F30003FEF4FE757E40E94030B18164CF56B8503
:100F40007C858D859E8520E030E040E251E40E9462
:100F5000090ADC01CB01BC01CD010E943308DC0190
:100F6000CB019E838D830FC080E991E09C838B83AE
:100F70008B819C810197F1F79C838B838D819E816E
:100F800001979E838D838D819E81009769F764CE42
:100F90006F81788589859A850E943308DC01CB01B1
:100FA0009E838D838D819E819A83898389819A8195
:100FB0000197F1F79A8389834FCEDF93CF93CDB713
:100FC000DEB7E5ECF0E01082E4ECF0E087E6808349
:100FD000A0ECB0E0E0ECF0E080818D7F8C93E2EC5F
:100FE000F0E086E08083E1ECF0E088E18083CF915F
:100FF000DF910895DF93CF9300D00F92CDB7DEB786
:1010000089837B836A8389818A3031F42A813B8199
:101010008DE0B9010E94FA07E0ECF0E08081882FB2
:1010200090E0807290700097B9F3E6ECF0E089816F
:1010300080830F900F900F90CF91DF910895DF93F1
:10104000CF9300D0CDB7DEB79A838983E0ECF0E090
:1010500080818823DCF7E6ECF0E080810F900F9030
:10106000CF91DF910895EF92FF920F931F937B0131
:101070008C0120E030E040E05FE40E94330B8823E5
:101080008CF0C801B70120E030E040E05FE40E944E
:10109000AB090E94930B9B01AC01205030404040B3
:1010A000504806C0C801B7010E94930B9B01AC01D8
:1010B000B901CA011F910F91FF90EF900895A0E030
:1010C000B0E0E5E6F8E00C949A0DDC012B01FA01A2
:1010D0009C91923008F439C1EB018881823008F488
:1010E00033C1943069F4843009F02FC111969C917A
:1010F00011978981981709F428C1A8EAB1E025C1A0
:10110000843009F421C18230A9F4923009F01DC164
:101110009A01AD0188E0EA010990AE01E901099266
:101120009E018150C1F7E201898111969C9189232A
:10113000818308C1923009F407C112962D903C902A
:101140001397EB018A819B811496AD90BD90CD9051
:10115000DC901797EC80FD800E811F819101281B88
:10116000390BB90137FF04C066277727621B730B61
:10117000603271050CF061C0121613066CF5370170
:101180004801062E04C096948794779467940A9435
:10119000D2F721E030E040E050E004C0220F331FDE
:1011A000441F551F6A95D2F72150304040405040AF
:1011B0002E213F21402351232115310541055105A1
:1011C00021F021E030E040E050E079018A01E6289A
:1011D000F728082919293CC0232BD1F1260E371EE8
:1011E00035014601062E04C096948794779467943F
:1011F0000A94D2F721E030E040E050E004C0220F32
:10120000331F441F551F6A95D2F72150304040408C
:1012100050402A213B214C215D21211531054105FA
:10122000510521F021E030E040E050E059016A0131
:10123000A628B728C828D9280BC0821593052CF0FA
:101240001C01AA24BB24650103C0EE24FF248701EE
:1012500011969C91D20111968C91981709F445C072
:10126000992339F0A80197012A193B094C095D0916
:1012700006C0A60195012E193F09400B510B57FDE1
:1012800008C01182338222822483358346835783A8
:101290001DC081E081833382228288279927DC0167
:1012A000821B930BA40BB50B84839583A683B78312
:1012B0000DC0220F331F441F551F248335834683DF
:1012C000578382819381019793838283248135811F
:1012D00046815781DA01C9010197A109B1098F5FE0
:1012E0009F4FAF4FBF4328F30BC0918333822282BD
:1012F000EA0CFB1C0C1D1D1DE482F582068317837E
:1013000083E08083248135814681578157FF1AC04D
:10131000C901AA2797FDA095BA2F81709070A0707F
:10132000B0705695479537952795822B932BA42B14
:10133000B52B84839583A683B7838281938101969D
:1013400093838283DF0101C0D201CD01CDB7DEB727
:10135000E2E10C94B60DA0E2B0E0E1EBF9E00C9410
:10136000A60D69837A838B839C832D833E834F8371
:101370005887E9E0EE2EF12CEC0EFD1ECE01019611
:10138000B7010E94BD0C8E010F5E1F4FCE01059666
:10139000B8010E94BD0C8A8991E089278A8BC70118
:1013A000B801AE01475E5F4F0E945F080E94E70BE5
:1013B000A096E6E00C94C20DA0E2B0E0E2EEF9E007
:1013C0000C94A60D69837A838B839C832D833E8343
:1013D0004F835887F9E0EF2EF12CEC0EFD1ECE0165
:1013E0000196B7010E94BD0C8E010F5E1F4FCE010A
:1013F0000596B8010E94BD0CC701B801AE01475E59
:101400005F4F0E945F080E94E70BA096E6E00C94F5
:10141000C20DA0E2B0E0EFE0FAE00C949A0D69830F
:101420007A838B839C832D833E834F835887CE01A1
:101430000196BE01675F7F4F0E94BD0CCE010596ED
:10144000BE016F5E7F4F0E94BD0C9985923088F07F
:1014500089898230C8F0943019F4823051F404C084
:10146000843029F4923081F488EA91E0C6C0923049
:1014700049F420E09A858A89981321E02A87CE01D1
:101480000996BBC0823049F420E09A858A89981376
:1014900021E02A8BCE014196B0C02D843E844F843A
:1014A00058886D887E888F88988CEE24FF24870169
:1014B000AA24BB24650140E050E060E070E0E0E079
:1014C000F0E0C10181709070892BE9F0E60CF71C07
:1014D000081D191D9A01AB012A0D3B1D4C1D5D1DF8
:1014E00080E090E0A0E0B0E0E614F70408051905FC
:1014F00020F481E090E0A0E0B0E0BA01A901480F3B
:10150000591F6A1F7B1FAA0CBB1CCC1CDD1C97FE3D
:1015100008C081E090E0A0E0B0E0A82AB92ACA2A79
:10152000DB2A3196E032F10549F0660C771C881C05
:10153000991C5694479437942794C3CFFA85EA8927
:101540002B893C898B859C85280F391F2E5F3F4F47
:1015500017C0CA0181709070892B61F016950795AC
:10156000F794E79480E090E0A0E0B0E8E82AF92A58
:101570000A2B1B2B76956795579547952F5F3F4F05
:1015800077FDE7CF0CC0440F551F661F771F17FD6F
:101590004160EE0CFF1C001F111F215030404030F5
:1015A00090E0590790E0690790E4790760F32B8F8A
:1015B0003C8FDB01CA018F779070A070B0708034CF
:1015C0009105A105B10561F447FD0AC0E114F104DC
:1015D0000105110529F0405C5F4F6F4F7F4F407848
:1015E0001A8EFE1711F081E08A8F4D8F5E8F6F8FFC
:1015F00078A383E0898FCE0149960E94E70BA096DD
:10160000E2E10C94B60DA8E1B0E0E9E0FBE00C9457
:10161000A60D69837A838B839C832D833E834F83BE
:10162000588789E0E82EF12CEC0EFD1ECE010196C4
:10163000B7010E94BD0C8E010F5E1F4FCE010596B3
:10164000B8010E94BD0C8985823040F089898230C2
:1016500028F0C701B8010E94350D01C08FEF6896D0
:10166000E6E00C94C20DA8E1B0E0E9E3FBE00C94E5
:10167000A60D69837A838B839C832D833E834F835E
:10168000588789E0E82EF12CEC0EFD1ECE01019664
:10169000B7010E94BD0C8E010F5E1F4FCE01059653
:1016A000B8010E94BD0C8985823040F08989823062
:1016B00028F0C701B8010E94350D01C08FEF689670
:1016C000E6E00C94C20DA8E1B0E0E9E6FBE00C9482
:1016D000A60D69837A838B839C832D833E834F83FE
:1016E000588789E0E82EF12CEC0EFD1ECE01019604
:1016F000B7010E94BD0C8E010F5E1F4FCE010596F3
:10170000B8010E94BD0C8985823040F08989823001
:1017100028F0C701B8010E94350D01C081E068962C
:10172000E6E00C94C20DACE0B0E0E9E9FBE00C941B
:10173000AA0D69837A838B839C83CE010196BE01B7
:101740006B5F7F4F0E94BD0C8D81823061F18230D2
:1017500050F1843021F48E81882351F12EC02F81E5
:10176000388537FD20C06E812F3131051CF066238E
:10177000F9F023C08EE190E0821B930B29853A8516
:101780004B855C8504C056954795379527958A9576
:10179000D2F76623B1F050954095309521953F4F93
:1017A0004F4F5F4F0EC020E030E040E050E009C0F6
:1017B0002FEF3FEF4FEF5FE704C020E030E040E065
:1017C00050E8B901CA012C96E2E00C94C60DDF92F4
:1017D000EF92FF920F931F93FC01E480F580068146
:1017E0001781D1808081823058F480E090E0A0E1C0
:1017F000B0E0E82AF92A0A2B1B2BEFEFF0E0A6C095
:10180000843009F49EC0823019F4E0E0F0E09BC01F
:10181000E114F1040105110519F4E0E0F0E096C0CF
:10182000628173819FEF623879070CF05BC022E818
:101830003FEF261B370B2A3131052CF020E030E03A
:1018400040E050E02AC0B801A701022E04C07695FE
:101850006795579547950A94D2F781E090E0A0E00C
:10186000B0E004C0880F991FAA1FBB1F2A95D2F7AA
:101870000197A109B1098E219F21A023B1230097CF
:10188000A105B10521F081E090E0A0E0B0E09A016F
:10189000AB01282B392B4A2B5B2BDA01C9018F773F
:1018A0009070A070B07080349105A105B10539F435
:1018B00027FF09C0205C3F4F4F4F5F4F04C0215CA2
:1018C0003F4F4F4F5F4FE0E0F0E02030A0E03A079D
:1018D000A0E04A07A0E45A0710F0E1E0F0E0790147
:1018E0008A0127C06038710564F5FB01E158FF4F9C
:1018F000D801C7018F779070A070B07080349105C7
:10190000A105B10539F4E7FE0DC080E490E0A0E048
:10191000B0E004C08FE390E0A0E0B0E0E80EF91E74
:101920000A1F1B1F17FF05C016950795F794E7942C
:10193000319687E016950795F794E7948A95D1F745
:1019400005C0EFEFF0E0EE24FF2487016E2F6795CE
:1019500066276795902F9F77D794DD24D7948E2F95
:101960008695492F462B582F5D29B701CA011F9133
:101970000F91FF90EF90DF900895FC01DB01408113
:1019800051812281622F6F7770E0221F2227221F50
:101990009381892F880F822B282F30E0991F992758
:1019A000991F11969C93119721153105A9F54115A1
:1019B00051056105710511F482E037C082E89FEF9F
:1019C00013969C938E9312979A01AB0167E0220FB6
:1019D000331F441F551F6A95D1F783E08C930DC0C8
:1019E000220F331F441F551F12968D919C91139700
:1019F000019713969C938E931297203080E03807BE
:101A000080E0480780E4580758F314962D933D93DF
:101A10004D935C93179708952F3F310579F4411545
:101A200051056105710519F484E08C93089564FFF4
:101A300003C081E08C9312C01C9210C02F5730401D
:101A400013963C932E93129783E08C9387E0440F78
:101A5000551F661F771F8A95D1F7706414964D93B2
:101A60005D936D937C93179708951F93DC01FB01A1
:101A70009C91923008F447C08081823008F443C0C2
:101A8000943051F411961C91843099F58181682F1E
:101A900070E0611B71093FC0843021F0923031F455
:101AA0008230B9F18181882389F12DC011961C9172
:101AB00011978230F1F081811817D9F412962D9187
:101AC0003C911397828193818217930794F0281792
:101AD0003907BCF014968D919D910D90BC91A02D6D
:101AE0002481358146815781281739074A075B07CA
:101AF00018F4112341F00AC082179307A407B50711
:101B000040F4112319F061E070E005C06FEF7FEF42
:101B100002C060E070E0CB011F910895991B79E04D
:101B200004C0991F961708F0961B881F7A95C9F76D
:101B3000809508952F923F924F925F926F927F927D
:101B40008F929F92AF92BF92CF92DF92EF92FF92CD
:101B50000F931F93CF93DF93CDB7DEB7CA1BDB0B79
:101B60000FB6F894DEBF0FBECDBF09942A8839881E
:101B700048885F846E847D848C849B84AA84B98425
:101B8000C884DF80EE80FD800C811B81AA81B98131
:101B9000CE0FD11D0FB6F894DEBF0FBECDBFED0145
:101BA0000895A0E0B0E0E7EDFDE00C94AA0DFE0181
:101BB0003596619171918091B2019091B301AF011D
:101BC0000E94E60D2096E2E00C94C60DABE0B0E07A
:101BD000ECEEFDE00C949A0D3C012B015A01FC0146
:101BE00017821682838181FD03C06FEF7FEFC6C12C
:101BF0009AE0892E1E010894211C311CF3012381D7
:101C0000F20123FD859123FF81912F01882309F49F
:101C1000B2C1853239F423FD859123FF81912F01D3
:101C2000853229F490E0B3010E94D90FE7CF982FB5
:101C3000FF24EE249924FFE1FF15D0F09B3269F0D8
:101C40009C3228F4903259F0933291F40EC09D32B8
:101C500049F0903369F441E024C052E0F52A84E071
:101C6000F82A28C098E0F92A25C0E0E1FE2A22C01F
:101C7000F7FC29C0892F80538A3070F4F6FE05C026
:101C8000989C902C1124980E15C0E89CE02C1124EF
:101C9000E80EF0E2FF2A0EC09E3229F4F6FC6BC17A
:101CA00040E4F42A07C09C3619F450E8F52A02C033
:101CB000983649F4F20123FD959123FF91912F016C
:101CC000992309F0B8CF892F8554833018F08052BA
:101CD000833038F444E050E0A40EB51E5FE359832E
:101CE0000FC0933631F0933779F0933509F056C031
:101CF00020C0F5018081898342E050E0A40EB51E2A
:101D0000610101E010E012C0F501C080D180F6FC55
:101D100003C06FEF7FEF02C0692D70E042E050E03A
:101D2000A40EB51EC6010E94CE0F8C015FE7F522FE
:101D300014C0F501C080D180F6FC03C06FEF7FEFC7
:101D400002C0692D70E042E050E0A40EB51EC6014D
:101D50000E94C30F8C0150E8F52AF3FE07C01AC099
:101D600080E290E0B3010E94D90FEA948E2D90E0BA
:101D700008171907A8F30EC0F601F7FC8591F7FEC6
:101D800081916F0190E0B3010E94D90FE110EA94B4
:101D9000015010400115110579F7EAC0943611F091
:101DA000993669F5F7FE08C0F5012081318142813D
:101DB000538184E090E00AC0F501808191819C010B
:101DC000442737FD4095542F82E090E0A80EB91EBD
:101DD0009FE6F92257FF09C050954095309521950F
:101DE0003F4F4F4F5F4FE0E8FE2ACA01B901A10102
:101DF0002AE030E00E940510D82ED21840C0953756
:101E000029F41F2D1F7E2AE030E01DC01F2D197FF1
:101E10009F3661F0903720F4983509F0ACC00FC0C0
:101E2000903739F0983709F0A6C004C028E030E0B8
:101E30000AC0106114FD146020E130E004C014FDFC
:101E4000166020E132E017FF08C0F5016081718162
:101E50008281938144E050E008C0F5018081918146
:101E6000BC0180E090E042E050E0A40EB51EA1016C
:101E70000E940510D82ED2188FE7F82EF122F6FE18
:101E80000BC05EEFF522D91438F4F4FE07C0F2FC63
:101E900005C08FEEF82202C01D2D01C0192DF4FEE1
:101EA0000DC0FE01ED0DF11D8081803319F499EE16
:101EB000F92208C01F5FF2FE05C003C08F2D86788F
:101EC00009F01F5F0F2DF3FC14C0F0FE0FC01E15AC
:101ED00010F09D2C0BC09D2C9E0C911A1E2D06C03F
:101EE00080E290E0B3010E94D90F1F5F1E15C0F37E
:101EF00004C01E1510F4E11A01C0EE2404FF0FC047
:101F000080E390E0B3010E94D90F02FF1DC001FDE4
:101F100003C088E790E00EC088E590E00BC0802FFA
:101F2000867891F001FF02C08BE201C080E2F7FCED
:101F30008DE290E0B3010E94D90F06C080E390E0EB
:101F4000B3010E94D90F9A94D914C0F3DA94F10125
:101F5000ED0DF11D808190E0B3010E94D90FDD20CD
:101F6000A9F706C080E290E0B3010E94D90FEA947D
:101F7000EE20C1F743CEF30166817781CB012B962A
:101F8000E2E10C94B60DFC01059061507040011027
:101F9000D8F7809590958E0F9F1F0895FC01615092
:101FA000704001900110D8F7809590958E0F9F1F7B
:101FB00008950F931F93CF93DF938C01EB018B81D7
:101FC00081FF1BC082FF0DC02E813F818C819D81CE
:101FD0002817390764F4E881F9810193F983E883CC
:101FE00006C0E885F985802F0995892B31F48E810B
:101FF0009F8101969F838E8302C00FEF1FEFC80160
:10200000DF91CF911F910F910895FA01AA272830EF
:1020100051F1203181F1E8946F936E7F6E5F7F4FB5
:102020008F4F9F4FAF4FB1E03ED0B4E03CD0670F31
:10203000781F891F9A1FA11D680F791F8A1F911D84
:10204000A11D6A0F711D811D911DA11D20D009F4D4
:1020500068943F912AE0269F11243019305D319316
:10206000DEF6CF010895462F4770405D4193B3E0FF
:102070000FD0C9F7F6CF462F4F70405D4A3318F0A6
:10208000495D31FD4052419302D0A9F7EACFB4E057
:10209000A6959795879577956795BA95C9F700970F
:1020A0006105710508959B01AC010A2E06945795B0
:1020B000479537952795BA95C9F7620F731F841F07
:0A20C000951FA01D0895F894FFCFAE
:1020CA000102040810204080010204081020408008
:1020DA0001020408102040800000000200000000F5
:1020EA00FA070000000000000001000000000000E4
:1020FA001F080000797979792025750A004D4D204D
:10210A0025750A0064642025750A0048482025754B
:10211A000A006D6D2025750A0073732025750A0063
:10212A00726567302025780A007265673120257844
:10213A000A00726567322025780A007265673320C3
:10214A0025780A00726567342025780A0072656767
:10215A00352025780A00726567362025780A0072CC
:10216A006567372025780A0000000000000000009B
:00000001FF
