:100000000C9434000C9451000C9451000C94510049
:100010000C9451000C9451000C9451000C9451001C
:100020000C9451000C9451000C9451000C9451000C
:100030000C9451000C9451000C9451000C945100FC
:100040000C9451000C9451000C9451000C945100EC
:100050000C9451000C9451000C9451000C945100DC
:100060000C9451000C94510011241FBECFEFD8E026
:10007000DEBFCDBF11E0A0E0B1E0E4EAFBE002C0EA
:1000800005900D92A435B107D9F711E0A4E5B1E0D0
:1000900001C01D92AA35B107E1F70E94A2020C949B
:1000A000D0050C9400002898482F50E020E030E064
:1000B00060EA7FE00BC0299A289ACB010197F1F7FB
:1000C00028982F5F3F4F2830310559F0CA01022E82
:1000D00002C0959587950A94E2F780FDECCF2998A8
:1000E000EBCF0895219A20E030E040EA5FE00EC0B7
:1000F000299AFA013197F1F7289AFA013197F1F725
:100100002F5F3F4F2830310549F086952898FA0136
:100110003197F1F780FDECCF2998EBCF0895209A25
:1001200084B184B90895219840E020E030E060EA8D
:100130007FE083B1847090E0022E02C0880F991F87
:100140000A94E2F7482B289ACB010197F1F72898F7
:100150002F5F3F4F2830310561F7842F089528988D
:1001600095B195B9880F81680E9472000E94930032
:1001700095B195B908950F931F93062F0E94AF0074
:1001800010E00F5F1F4F21E030E002C0220F331F4D
:100190000A95E2F721502823822F82958F7090E0F4
:1001A000AC01440F551F440F551F440F551F880FB6
:1001B000991F840F2F70820F1F910F91089567E090
:1001C0000E94BB0008951F93162F289895B195B9EA
:1001D000880F80680E947200812F0E94720085B192
:1001E00085B91F910895EF92FF920F931F93E82E08
:1001F000F62E042F0E94AF00E82F10E00F5F1F4F74
:1002000021E030E002C0220F331F0A95E2F72150AF
:100210008F2D6AE00E94F402482F50E042955295DB
:10022000507F5427407F54278F2D0E94F402942B37
:10023000922320952E23292B8E2D622F0E94E300DE
:100240001F910F91FF90EF90089547E00E94F300F7
:10025000089580E066E00E94BB00089581E00E945E
:10026000DF00089582E00E94AF00482F87FD18C08C
:1002700090E0807390709595879595958795959565
:100280008795959587959C01220F331F220F331F69
:10029000220F331F880F991F820F4F70840F08950C
:1002A000282F30E0207230703595279535952795A9
:1002B000359527953595279535952795C901880F4B
:1002C000991F820F931F880F880F4F70840F089516
:1002D00083E065E00E94BB00089584E064E00E9432
:1002E000BB00089585E062E00E94BB00089586E0AF
:1002F0000E94DF00282F30E02053384FC9010895B5
:10030000682F80E046E00E94F3000895682F81E0A6
:1003100046E00E94F30008951F93182F82E060E0EA
:100320000E94E30082E0612F45E00E94F3001F91EC
:100330000895682F83E045E00E94F3000895682F38
:1003400084E044E00E94F3000895682F85E042E0D5
:100350000E94F3000895BC01605D774086E00E9432
:100360002501089588E38AB908955C9A482F50E0E2
:1003700020E030E007C05B985D9A2F5F3F4F283048
:10038000310589F05D98CA01022E02C0880F991FBD
:100390000A94E2F787FFEFCF5B9A5D9A2F5F3F4F9A
:1003A0002830310579F708950F931F93082F162FE2
:1003B000842F0E94B501812F0E94B501802F0E94D9
:1003C000B5011F910F910895AF92BF92CF92DF9226
:1003D000EF92FF921F93CF93DF9322982998C0E06A
:1003E000D0E010E020E0C22E21E0D22E91E0A92E34
:1003F000B12C80EAE82E8FE0F82E83B100D000D037
:10040000EDB7FEB73196ADB7BEB71296DC92CE927D
:100410001197828313820E9400030F900F900F9018
:100420000F901A9B08C0C5010C2E02C0880F991F9F
:100430000A94E2F7182B8AE090E00E941503299AAB
:10044000C7010197F1F729982196C830D105A9F67F
:10045000812FDF91CF911F91FF90EF90DF90CF9090
:10046000BF90AF900895FF920F931F93CF93DF93A8
:10047000F82E229AC0E0D0E000EA1FE015C02A9AC8
:1004800081E390E00E9415038AE090E00E9415034A
:10049000C8010197F1F7299AC8010197F1F7219650
:1004A000C830D10569F0F6942998C8010197F1F791
:1004B000F0FCE5CF2A9880E390E00E941503E4CF9A
:1004C000DF91CF911F910F91FF9008951F93182FE7
:1004D000110F116800D000D0EDB7FEB7319684E05F
:1004E00091E0ADB7BEB712969C938E93119712838D
:1004F00013820E940003299885B185B9289A0F902C
:100500000F900F900F90812F0E9433020E94E40100
:10051000182F00D000D0EDB7FEB7319681E191E001
:10052000ADB7BEB712969C938E9311971283138228
:100530000E94000328980F900F900F900F90812F2A
:100540001F910895CF93DF930E94B2010E94CC02C5
:1005500087E391E0909357018093560185E491E001
:1005600090935501809354010E948F00209A219A04
:10057000C0E9D1E080E00E94660281E00E9466024C
:1005800082E00E94660220E137E2CE010197F1F796
:1005900021503040D1F7EECF1092C50087E680930E
:1005A000C400E0ECF0E080818D7F808386E0809362
:1005B000C20088E18093C10008951F93182F8A30EC
:1005C00041F08091C00085FFFCCF1093C6001F91C1
:1005D00008958DE00E94DD02F4CF8091C00087FF76
:1005E000FCCF8091C6000895991B79E004C0991F43
:1005F000961708F0961B881F7A95C9F7809508957D
:10060000A0E0B0E0E6E0F3E00C94A905FE01359629
:10061000619171918091560190915701AF010E94B3
:100620001C032096E2E00C94C50560915601709180
:1006300057010E940F050895ABE0B0E0E2E2F3E05D
:100640000C9499053C012B015A01FC01178216827A
:10065000838181FD03C06FEF7FEFC6C19AE0892ED1
:100660001E010894211C311CF3012381F20123FD9A
:10067000859123FF81912F01882309F4B2C185322E
:1006800039F423FD859123FF81912F01853229F4CF
:1006900090E0B3010E940F05E7CF982FFF24EE24CE
:1006A0009924FFE1FF15D0F09B3269F09C3228F4C9
:1006B000903259F0933291F40EC09D3249F090334C
:1006C00069F441E024C052E0F52A84E0F82A28C009
:1006D00098E0F92A25C0E0E1FE2A22C0F7FC29C0F3
:1006E000892F80538A3070F4F6FE05C0989C902CB8
:1006F0001124980E15C0E89CE02C1124E80EF0E2BD
:10070000FF2A0EC09E3229F4F6FC6BC140E4F42AA5
:1007100007C09C3619F450E8F52A02C0983649F40F
:10072000F20123FD959123FF91912F01992309F067
:10073000B8CF892F8554833018F08052833038F435
:1007400044E050E0A40EB51E5FE359830FC093361A
:1007500031F0933779F0933509F056C020C0F50198
:100760008081898342E050E0A40EB51E610101E062
:1007700010E012C0F501C080D180F6FC03C06FEF1D
:100780007FEF02C0692D70E042E050E0A40EB51E7C
:10079000C6010E9404058C015FE7F52214C0F50133
:1007A000C080D180F6FC03C06FEF7FEF02C0692DDF
:1007B00070E042E050E0A40EB51EC6010E94F904AC
:1007C0008C0150E8F52AF3FE07C01AC080E290E0E1
:1007D000B3010E940F05EA948E2D90E008171907C7
:1007E000A8F30EC0F601F7FC8591F7FE81916F0129
:1007F00090E0B3010E940F05E110EA94015010400F
:100800000115110579F7EAC0943611F0993669F5AA
:10081000F7FE08C0F501208131814281538184E0D7
:1008200090E00AC0F501808191819C01442737FD49
:100830004095542F82E090E0A80EB91E9FE6F92261
:1008400057FF09C050954095309521953F4F4F4F28
:100850005F4FE0E8FE2ACA01B901A1012AE030E0B9
:100860000E943B05D82ED21840C0953729F41F2D81
:100870001F7E2AE030E01DC01F2D197F9F3661F0DA
:10088000903720F4983509F0ACC00FC0903739F09C
:10089000983709F0A6C004C028E030E00AC0106113
:1008A00014FD146020E130E004C014FD166020E166
:1008B00032E017FF08C0F501608171818281938168
:1008C00044E050E008C0F50180819181BC0180E0E6
:1008D00090E042E050E0A40EB51EA1010E943B054D
:1008E000D82ED2188FE7F82EF122F6FE0BC05EEF5D
:1008F000F522D91438F4F4FE07C0F2FC05C08FEEDF
:10090000F82202C01D2D01C0192DF4FE0DC0FE01FC
:10091000ED0DF11D8081803319F499EEF92208C0A4
:100920001F5FF2FE05C003C08F2D867809F01F5FA0
:100930000F2DF3FC14C0F0FE0FC01E1510F09D2CFF
:100940000BC09D2C9E0C911A1E2D06C080E290E0DB
:10095000B3010E940F051F5F1E15C0F304C01E15D2
:1009600010F4E11A01C0EE2404FF0FC080E390E010
:10097000B3010E940F0502FF1DC001FD03C088E7FF
:1009800090E00EC088E590E00BC0802F867891F053
:1009900001FF02C08BE201C080E2F7FC8DE290E033
:1009A000B3010E940F0506C080E390E0B3010E94EE
:1009B0000F059A94D914C0F3DA94F101ED0DF11DED
:1009C000808190E0B3010E940F05DD20A9F706C0E9
:1009D00080E290E0B3010E940F05EA94EE20C1F797
:1009E00043CEF30166817781CB012B96E2E10C9433
:1009F000B505FC010590615070400110D8F7809555
:100A000090958E0F9F1F0895FC01615070400190DA
:100A10000110D8F7809590958E0F9F1F08950F9322
:100A20001F93CF93DF938C01EB018B8181FF1BC060
:100A300082FF0DC02E813F818C819D81281739074F
:100A400064F4E881F9810193F983E88306C0E885BD
:100A5000F985802F0995892B31F48E819F8101962C
:100A60009F838E8302C00FEF1FEFC801DF91CF91EC
:100A70001F910F910895FA01AA27283051F12031D2
:100A800081F1E8946F936E7F6E5F7F4F8F4F9F4F22
:100A9000AF4FB1E03ED0B4E03CD0670F781F891F64
:100AA0009A1FA11D680F791F8A1F911DA11D6A0F32
:100AB000711D811D911DA11D20D009F468943F91E5
:100AC0002AE0269F11243019305D3193DEF6CF01E4
:100AD0000895462F4770405D4193B3E00FD0C9F7AA
:100AE000F6CF462F4F70405D4A3318F0495D31FD17
:100AF0004052419302D0A9F7EACFB4E0A69597956A
:100B0000879577956795BA95C9F70097610571053F
:100B100008959B01AC010A2E069457954795379589
:100B20002795BA95C9F7620F731F841F951FA01DE3
:100B300008952F923F924F925F926F927F928F9281
:100B40009F92AF92BF92CF92DF92EF92FF920F935C
:100B50001F93CF93DF93CDB7DEB7CA1BDB0B0FB666
:100B6000F894DEBF0FBECDBF09942A883988488823
:100B70005F846E847D848C849B84AA84B984C884B9
:100B8000DF80EE80FD800C811B81AA81B981CE0FB0
:100B9000D11D0FB6F894DEBF0FBECDBFED01089595
:040BA000F894FFCFF7
:100BA40025782000636D645F627974652025780A76
:100BB400007265675F76616C75652025780A0001AF
:100BC4000204081020408001020408102040800123
:100BD400020408102040800000000200000000DD34
:100BE400020000000000000001000000000000ED11
:040BF40002000000FB
:00000001FF
