:100000000C9434000C9451000C9451000C94510049
:100010000C9451000C94B5030C9451000C945100B5
:100020000C9451000C9451000C9451000C9451000C
:100030000C9451000C9451000C9451000C945100FC
:100040000C9451000C9451000C9451000C945100EC
:100050000C9451000C9451000C9451000C945100DC
:100060000C9451000C94510011241FBECFEFD4E02A
:10007000DEBFCDBF11E0A0E0B1E0ECEAFAE002C0E3
:1000800005900D92AC31B107D9F711E0ACE1B1E0C8
:1000900001C01D92A232B107E1F70E94E7040C945F
:1000A00054050C940000E4E2F0E0808182608083DB
:1000B0008081816080830895682FE4E2F0E0808190
:1000C0008460808320E030E0E5E2F0E04AEF50E039
:1000D00080818D7F8083CA010197F1F760FF04C0A2
:1000E00080818460808303C080818B7F8083CA018C
:1000F0000197F1F7808182608083CA010197F1F74F
:100100002F5F3F4F2830310511F06695E1CF0895FC
:10011000CF93DF93E4E2F0E080818B7F8083E5E2A0
:10012000F0E080818D7F808340E020E030E0A3E23A
:10013000B0E0C1E0D0E06AEF70E08C9182FF08C0CF
:10014000CE01022E02C0880F991F0A94E2F7482BB5
:10015000808182608083CB010197F1F780818D7F60
:1001600080832F5F3F4F2830310539F7842FDF918F
:10017000CF9108950F931F9305E210E0F80190814D
:100180009D7F9083908191609083880F81680E9409
:100190005C000E948800F80190819E7F90831F91EF
:1001A0000F9108950F931F93062F0E94BA0010E03D
:1001B0000F5F1F4F21E030E002C0220F331F0A956E
:1001C000E2F721502823422F4F7022952F7030E004
:1001D000C901880F991F220F331F220F331F220FCF
:1001E000331F820F840F1F910F91089567E00E94C3
:1001F000D2000895FF920F931F93F62E05E210E0B0
:10020000F80190819D7F9083908191609083880F09
:1002100080680E945C008F2D0E945C00F801808144
:100220008E7F80831F910F91FF900895EF92FF9230
:100230000F931F93E82EF62E042F0E94BA00E82F8A
:1002400010E00F5F1F4F21E030E002C0220F331F8C
:100250000A95E2F721508F2D6AE00E942105482F70
:1002600050E042955295507F5427407F54278F2D60
:100270000E942105942B922320952E23292B8E2D2D
:10028000622F0E94FA001F910F91FF90EF90089546
:1002900047E00E94160108951F93182F80E00E94E6
:1002A000BA001795112717958F77182B80E0612FCB
:1002B0000E94FA001F91089580E066E00E94D2003B
:1002C000089581E00E94F600089582E00E94BA003D
:1002D000482F8823BCF4282F30E0207230703595E9
:1002E00027953595279535952795359527953595F6
:1002F0002795C901880F991F820F931F282F220F5E
:10030000220F15C090E08073907095958795959514
:10031000879595958795959587959C01220F331F15
:10032000880F991F880F991F880F991F280F842FF6
:100330008F70820F089583E065E00E94D2000895D7
:1003400084E064E00E94D200089585E062E00E94AB
:10035000D200089586E00E94F600282F30E0205356
:10036000384F822F932F0895682F80E046E00E9437
:1003700016010895682F81E046E00E941601089555
:100380001F93182F82E060E00E94FA0082E0612F44
:1003900045E00E9416011F910895682F83E045E013
:1003A0000E9416010895682F84E044E00E9416011F
:1003B0000895682F85E042E00E9416010895BC016F
:1003C000605D774086E00E94480108951F93182FD2
:1003D0000E946101810F8C3308F08C530E94BA0196
:1003E0001F9108951F93182F0E946501810F883176
:1003F00008F088510E94C0011F9108950E94650174
:1004000090E0019668E170E00E942D050E94C00115
:1004100084EC99E00197F1F708950E94610190E062
:1004200001966CE370E00E942D050E94BA0184ECF5
:1004300099E00197F1F70895EAE2F0E080818F7B7F
:10044000808380818F778083EBE2F0E0808180641D
:1004500080838081806880830895E8E6F0E0808171
:1004600084608083EDE6F0E0808180648083808119
:1004700080688083789408959C01009741F04AEF4A
:1004800050E0CA010197F1F721503040D1F70895AB
:100490001F9329B1182F30E0082E02C035952795FB
:1004A0000A94E2F720FF03C020E030E010C089E1A9
:1004B00090E00E943C0289B190E002C0959587953A
:1004C0001A95E2F7809590959C0121703070822FEB
:1004D000932F1F910895EAE2F0E080818863808382
:1004E000089520E030E0EBE2F0E0482F50E080811A
:1004F0008F7D8083CA01022E02C0880F991F0A9443
:10050000E2F7882324F480818860808303C080819F
:10051000877F80838081806280832F5F3F4F283078
:10052000310529F70895AB01BC0120E030E0EBE292
:10053000F0E080818F7D8083DB01CA01022E04C040
:10054000880F991FAA1FBB1F0A94D2F7A7FF04C0E8
:1005500080818860808303C08081877F80838081E1
:10056000806280832F5F3F4F2831310511F7089556
:10057000EF92FF920F931F93E82EF62E842F0BE23B
:1005800010E0F80190819F7E90830E9471028F2D70
:100590000E9471028E2D0E947102F801808180619B
:1005A00080831F910F91FF90EF900895893140F063
:1005B000862F90E0019668E170E00E942D05682F7B
:1005C000662319F06D3008F06C50862F0895861759
:1005D00018F420E030E008C090E0841708F091E0C3
:1005E00081E08927282F30E0822F932F08950E94E1
:1005F000F80480E091E090931F0180931E018EE04B
:1006000091E090931D0180931C0108950F931F9317
:1006100080E060E040E40E94B80208EA11E6C80108
:100620000197F1F780E060E042E00E94B802C80163
:100630000197F1F780E060E041E00E94B802C80154
:100640000197F1F780E068E040E00E94B802C8013D
:100650000197F1F780E060E040E20E94B802C80133
:100660000197F1F780E064E040E00E94B802C80121
:100670000197F1F780E060E840E00E94B802C8010D
:100680000197F1F780E060E040E10E94B802C80104
:100690000197F1F788E060E040E00E94B802C801ED
:1006A0000197F1F780E060E240E00E94B802C801E3
:1006B0000197F1F780E860E040E00E94B802C801CD
:1006C0000197F1F780E061E040E00E94B802C801C4
:1006D0000197F1F780E060E140E00E94B802C801B4
:1006E0000197F1F780E062E040E00E94B802C801A3
:1006F0000197F1F780E060E440E00E94B802C80191
:100700000197F1F780E260E040E00E94B802C80182
:100710000197F1F780E460E040E00E94B802C80170
:100720000197F1F782E060E040E00E94B802C80162
:100730000197F1F784E060E040E00E94B802C80150
:100740000197F1F781E060E040E00E94B802C80143
:100750000197F1F780E160E040E00E94B802C80133
:100760000197F1F71F910F9108951F920F920FB605
:100770000F9211242F933F934F935F936F937F9327
:100780008F939F93AF93BF93EF93FF93F89486E07B
:100790000E944802892B39F00E94FE018AEF90E006
:1007A0000E943C020BC087E00E944802892B31F076
:1007B0000E940D028AEF90E00E943C027894FF9123
:1007C000EF91BF91AF919F918F917F916F915F91C9
:1007D0004F913F912F910F900FBE0F901F90189542
:1007E0000E946B020E9453000E9406030E941C029A
:1007F0000895FF920F931F930E946101F82E0E94AB
:100800006501682F8F2D0E94D602863091F18730C6
:1008100070F4833029F1843028F48130C1F08230C3
:10082000C9F41BC08430F9F08530A1F41FC08930B1
:1008300049F18A3028F48730F9F0883059F41FC024
:100840008B3031F18B3008F18C3021F424C000E082
:1008500011E023C000E010E020C000E010E21DC065
:1008600000E012E01AC000E010E417C001E010E060
:1008700014C000E210E011C002E010E00EC000E47D
:1008800010E00BC004E010E008C000E810E005C074
:1008900008E010E002C000E010E18F2D60E045E0CC
:1008A0000E94E702892B19F0006140E46EC08F2D91
:1008B00065E04AE00E94E702892B19F0106842E4E3
:1008C00064C08F2D6AE04FE00E94E702892B19F087
:1008D000106841E45AC08F2D6FE044E10E94E702A6
:1008E000892B19F0186840E450C08F2D64E149E16C
:1008F0000E94E702892B19F0106840E646C08F2D50
:1009000069E14EE10E94E702892B19F0146042E58B
:100910003CC08F2D6EE143E20E94E702892B11F06B
:1009200040E533C08F2D63E248E20E94E702892B45
:1009300019F0106842E529C08F2D68E24DE20E944F
:10094000E702892B19F0146040E61FC08F2D6DE27D
:1009500042E30E94E702892B19F01C6040E415C0B5
:100960008F2D62E347E30E94E702892B19F01460A0
:1009700041E40BC08F2D67E34CE30E94E702892B13
:1009800011F440E402C0146042E4802F612F0E9401
:10099000B8021F910F91FF9008950E94F90386E01D
:1009A0000E944802892B39F00E94FE018AEF90E0F4
:1009B0000E943C02089587E00E944802892B31F092
:1009C0000E940D028AEF90E00E943C0208950E946E
:1009D000F00380E00E944C0181E10E94C0018AE3A3
:1009E0000E94BA0184E10E94B4010E94CD04FDCFAF
:1009F0001092C5008CE08093C400E0ECF0E08081B0
:100A00008260808386E08093C20088E18093C10089
:100A100008951F93182F8A3019F48DE00E9409055C
:100A2000E0ECF0E0808185FFFDCF1093C6001F91C0
:100A30000895E0ECF0E080818823ECF78091C60017
:100A40000895991B79E004C0991F961708F0961B2A
:100A5000881F7A95C9F78095089597FB092E072678
:100A60000AD077FD04D00CD006D000201AF470957F
:100A700061957F4F0895F6F7909581959F4F089562
:100A8000AA1BBB1B51E107C0AA1FBB1FA617B707B4
:100A900010F0A61BB70B881F991F5A95A9F78095D0
:0C0AA0009095BC01CD010895F894FFCFA3
:100AAC00000000020000000009050000000000002A
:0C0ABC000001000000000000190500000F
:00000001FF
